{
  "address": "0xe7f1725E7734CE288F8367e1Bb143E90bb3F0512",
  "abi": [
    {
      "inputs": [
        {
          "internalType": "address",
          "name": "priceFeedAddress",
          "type": "address"
        }
      ],
      "stateMutability": "nonpayable",
      "type": "constructor"
    },
    {
      "inputs": [],
      "name": "FundMe__NotOwner",
      "type": "error"
    },
    {
      "stateMutability": "payable",
      "type": "fallback"
    },
    {
      "inputs": [],
      "name": "MINIMUM_USD",
      "outputs": [
        {
          "internalType": "uint256",
          "name": "",
          "type": "uint256"
        }
      ],
      "stateMutability": "view",
      "type": "function"
    },
    {
      "inputs": [],
      "name": "cheaperWithdraw",
      "outputs": [],
      "stateMutability": "nonpayable",
      "type": "function"
    },
    {
      "inputs": [],
      "name": "fund",
      "outputs": [],
      "stateMutability": "payable",
      "type": "function"
    },
    {
      "inputs": [],
      "name": "getVersion",
      "outputs": [
        {
          "internalType": "uint256",
          "name": "",
          "type": "uint256"
        }
      ],
      "stateMutability": "view",
      "type": "function"
    },
    {
      "inputs": [],
      "name": "i_owner",
      "outputs": [
        {
          "internalType": "address",
          "name": "",
          "type": "address"
        }
      ],
      "stateMutability": "view",
      "type": "function"
    },
    {
      "inputs": [
        {
          "internalType": "address",
          "name": "",
          "type": "address"
        }
      ],
      "name": "s_addressToAmountFunded",
      "outputs": [
        {
          "internalType": "uint256",
          "name": "",
          "type": "uint256"
        }
      ],
      "stateMutability": "view",
      "type": "function"
    },
    {
      "inputs": [
        {
          "internalType": "uint256",
          "name": "",
          "type": "uint256"
        }
      ],
      "name": "s_funders",
      "outputs": [
        {
          "internalType": "address",
          "name": "",
          "type": "address"
        }
      ],
      "stateMutability": "view",
      "type": "function"
    },
    {
      "inputs": [],
      "name": "s_priceFeed",
      "outputs": [
        {
          "internalType": "contract AggregatorV3Interface",
          "name": "",
          "type": "address"
        }
      ],
      "stateMutability": "view",
      "type": "function"
    },
    {
      "inputs": [],
      "name": "withdraw",
      "outputs": [],
      "stateMutability": "nonpayable",
      "type": "function"
    },
    {
      "stateMutability": "payable",
      "type": "receive"
    }
  ],
  "transactionHash": "0xf4d0508a21c0d971d32655424c4b7d0e766a2eb5220358f34c628f64e774fb3d",
  "args": [
    "0x5FbDB2315678afecb367f032d93F642f64180aa3"
  ],
  "numDeployments": 1,
  "solcInputHash": "c87b675d9d37e56823d39c11ae17a0da",
  "bytecode": "0x60a06040523480156200001157600080fd5b50604051620013ce380380620013ce833981810160405281019062000037919062000120565b33600260006101000a81548173ffffffffffffffffffffffffffffffffffffffff021916908373ffffffffffffffffffffffffffffffffffffffff1602179055508073ffffffffffffffffffffffffffffffffffffffff1660808173ffffffffffffffffffffffffffffffffffffffff1660601b815250505062000152565b600080fd5b600073ffffffffffffffffffffffffffffffffffffffff82169050919050565b6000620000e882620000bb565b9050919050565b620000fa81620000db565b81146200010657600080fd5b50565b6000815190506200011a81620000ef565b92915050565b600060208284031215620001395762000138620000b6565b5b6000620001498482850162000109565b91505092915050565b60805160601c61124f6200017f600039600081816102100152818161033d01526103e0015261124f6000f3fe60806040526004361061008a5760003560e01c806354861af71161005957806354861af71461014d5780636b69a5921461018a578063b60d4288146101b5578063be2693f0146101bf578063dba6335f146101d657610099565b80630d8e6e2c146100a35780630ec3b027146100ce5780631bf6132d146100f95780633ccfd60b1461013657610099565b3661009957610097610201565b005b6100a1610201565b005b3480156100af57600080fd5b506100b8610339565b6040516100c59190610b10565b60405180910390f35b3480156100da57600080fd5b506100e36103de565b6040516100f09190610baa565b60405180910390f35b34801561010557600080fd5b50610120600480360381019061011b9190610c08565b610402565b60405161012d9190610b10565b60405180910390f35b34801561014257600080fd5b5061014b61041a565b005b34801561015957600080fd5b50610174600480360381019061016f9190610c61565b61065c565b6040516101819190610c9d565b60405180910390f35b34801561019657600080fd5b5061019f61069b565b6040516101ac9190610b10565b60405180910390f35b6101bd610201565b005b3480156101cb57600080fd5b506101d46106a8565b005b3480156101e257600080fd5b506101eb61094e565b6040516101f89190610c9d565b60405180910390f35b6802b5e3af16b188000061023e7f00000000000000000000000000000000000000000000000000000000000000003461097490919063ffffffff16565b101561027f576040517f08c379a000000000000000000000000000000000000000000000000000000000815260040161027690610d15565b60405180910390fd5b346000803373ffffffffffffffffffffffffffffffffffffffff1673ffffffffffffffffffffffffffffffffffffffff16815260200190815260200160002060008282546102cd9190610d64565b925050819055506001339080600181540180825580915050600190039060005260206000200160009091909190916101000a81548173ffffffffffffffffffffffffffffffffffffffff021916908373ffffffffffffffffffffffffffffffffffffffff160217905550565b60007f000000000000000000000000000000000000000000000000000000000000000073ffffffffffffffffffffffffffffffffffffffff166354fd4d506040518163ffffffff1660e01b815260040160206040518083038186803b1580156103a157600080fd5b505afa1580156103b5573d6000803e3d6000fd5b505050506040513d601f19601f820116820180604052508101906103d99190610dcf565b905090565b7f000000000000000000000000000000000000000000000000000000000000000081565b60006020528060005260406000206000915090505481565b600260009054906101000a900473ffffffffffffffffffffffffffffffffffffffff1673ffffffffffffffffffffffffffffffffffffffff163373ffffffffffffffffffffffffffffffffffffffff16146104a1576040517f579610db00000000000000000000000000000000000000000000000000000000815260040160405180910390fd5b60005b60018054905081101561054c576000600182815481106104c7576104c6610dfc565b5b9060005260206000200160009054906101000a900473ffffffffffffffffffffffffffffffffffffffff16905060008060008373ffffffffffffffffffffffffffffffffffffffff1673ffffffffffffffffffffffffffffffffffffffff1681526020019081526020016000208190555050808061054490610e2b565b9150506104a4565b50600067ffffffffffffffff81111561056857610567610e74565b5b6040519080825280602002602001820160405280156105965781602001602082028036833780820191505090505b50600190805190602001906105ac929190610a50565b5060003373ffffffffffffffffffffffffffffffffffffffff16476040516105d390610ed4565b60006040518083038185875af1925050503d8060008114610610576040519150601f19603f3d011682016040523d82523d6000602084013e610615565b606091505b5050905080610659576040517f08c379a000000000000000000000000000000000000000000000000000000000815260040161065090610f35565b60405180910390fd5b50565b6001818154811061066c57600080fd5b906000526020600020016000915054906101000a900473ffffffffffffffffffffffffffffffffffffffff1681565b6802b5e3af16b188000081565b600260009054906101000a900473ffffffffffffffffffffffffffffffffffffffff1673ffffffffffffffffffffffffffffffffffffffff163373ffffffffffffffffffffffffffffffffffffffff161461072f576040517f579610db00000000000000000000000000000000000000000000000000000000815260040160405180910390fd5b600060018054806020026020016040519081016040528092919081815260200182805480156107b357602002820191906000526020600020905b8160009054906101000a900473ffffffffffffffffffffffffffffffffffffffff1673ffffffffffffffffffffffffffffffffffffffff1681526020019060010190808311610769575b5050505050905060005b815181101561083d5760008282815181106107db576107da610dfc565b5b6020026020010151905060008060008373ffffffffffffffffffffffffffffffffffffffff1673ffffffffffffffffffffffffffffffffffffffff1681526020019081526020016000208190555050808061083590610e2b565b9150506107bd565b50600067ffffffffffffffff81111561085957610858610e74565b5b6040519080825280602002602001820160405280156108875781602001602082028036833780820191505090505b506001908051906020019061089d929190610a50565b5060003373ffffffffffffffffffffffffffffffffffffffff16476040516108c490610ed4565b60006040518083038185875af1925050503d8060008114610901576040519150601f19603f3d011682016040523d82523d6000602084013e610906565b606091505b505090508061094a576040517f08c379a000000000000000000000000000000000000000000000000000000000815260040161094190610f35565b60405180910390fd5b5050565b600260009054906101000a900473ffffffffffffffffffffffffffffffffffffffff1681565b600080610980836109b0565b90506000670de0b6b3a764000085836109999190610f55565b6109a39190610fde565b9050809250505092915050565b6000808273ffffffffffffffffffffffffffffffffffffffff1663feaf968c6040518163ffffffff1660e01b815260040160a06040518083038186803b1580156109f957600080fd5b505afa158015610a0d573d6000803e3d6000fd5b505050506040513d601f19601f82011682018060405250810190610a319190611087565b5050509150506402540be40081610a489190611102565b915050919050565b828054828255906000526020600020908101928215610ac9579160200282015b82811115610ac85782518260006101000a81548173ffffffffffffffffffffffffffffffffffffffff021916908373ffffffffffffffffffffffffffffffffffffffff16021790555091602001919060010190610a70565b5b509050610ad69190610ada565b5090565b5b80821115610af3576000816000905550600101610adb565b5090565b6000819050919050565b610b0a81610af7565b82525050565b6000602082019050610b256000830184610b01565b92915050565b600073ffffffffffffffffffffffffffffffffffffffff82169050919050565b6000819050919050565b6000610b70610b6b610b6684610b2b565b610b4b565b610b2b565b9050919050565b6000610b8282610b55565b9050919050565b6000610b9482610b77565b9050919050565b610ba481610b89565b82525050565b6000602082019050610bbf6000830184610b9b565b92915050565b600080fd5b6000610bd582610b2b565b9050919050565b610be581610bca565b8114610bf057600080fd5b50565b600081359050610c0281610bdc565b92915050565b600060208284031215610c1e57610c1d610bc5565b5b6000610c2c84828501610bf3565b91505092915050565b610c3e81610af7565b8114610c4957600080fd5b50565b600081359050610c5b81610c35565b92915050565b600060208284031215610c7757610c76610bc5565b5b6000610c8584828501610c4c565b91505092915050565b610c9781610bca565b82525050565b6000602082019050610cb26000830184610c8e565b92915050565b600082825260208201905092915050565b7f596f75206e65656420746f207370656e64206d6f726520455448210000000000600082015250565b6000610cff601b83610cb8565b9150610d0a82610cc9565b602082019050919050565b60006020820190508181036000830152610d2e81610cf2565b9050919050565b7f4e487b7100000000000000000000000000000000000000000000000000000000600052601160045260246000fd5b6000610d6f82610af7565b9150610d7a83610af7565b9250827fffffffffffffffffffffffffffffffffffffffffffffffffffffffffffffffff03821115610daf57610dae610d35565b5b828201905092915050565b600081519050610dc981610c35565b92915050565b600060208284031215610de557610de4610bc5565b5b6000610df384828501610dba565b91505092915050565b7f4e487b7100000000000000000000000000000000000000000000000000000000600052603260045260246000fd5b6000610e3682610af7565b91507fffffffffffffffffffffffffffffffffffffffffffffffffffffffffffffffff821415610e6957610e68610d35565b5b600182019050919050565b7f4e487b7100000000000000000000000000000000000000000000000000000000600052604160045260246000fd5b600081905092915050565b50565b6000610ebe600083610ea3565b9150610ec982610eae565b600082019050919050565b6000610edf82610eb1565b9150819050919050565b7f43616c6c206661696c6564000000000000000000000000000000000000000000600082015250565b6000610f1f600b83610cb8565b9150610f2a82610ee9565b602082019050919050565b60006020820190508181036000830152610f4e81610f12565b9050919050565b6000610f6082610af7565b9150610f6b83610af7565b9250817fffffffffffffffffffffffffffffffffffffffffffffffffffffffffffffffff0483118215151615610fa457610fa3610d35565b5b828202905092915050565b7f4e487b7100000000000000000000000000000000000000000000000000000000600052601260045260246000fd5b6000610fe982610af7565b9150610ff483610af7565b92508261100457611003610faf565b5b828204905092915050565b600069ffffffffffffffffffff82169050919050565b61102e8161100f565b811461103957600080fd5b50565b60008151905061104b81611025565b92915050565b6000819050919050565b61106481611051565b811461106f57600080fd5b50565b6000815190506110818161105b565b92915050565b600080600080600060a086880312156110a3576110a2610bc5565b5b60006110b18882890161103c565b95505060206110c288828901611072565b94505060406110d388828901610dba565b93505060606110e488828901610dba565b92505060806110f58882890161103c565b9150509295509295909350565b600061110d82611051565b915061111883611051565b9250827f7fffffffffffffffffffffffffffffffffffffffffffffffffffffffffffffff048211600084136000841316161561115757611156610d35565b5b817f8000000000000000000000000000000000000000000000000000000000000000058312600084126000841316161561119457611193610d35565b5b827f800000000000000000000000000000000000000000000000000000000000000005821260008413600084121616156111d1576111d0610d35565b5b827f7fffffffffffffffffffffffffffffffffffffffffffffffffffffffffffffff058212600084126000841216161561120e5761120d610d35565b5b82820290509291505056fea2646970667358221220c5b0ce16219f5ee5abfbc0a119ba1cd8565822b1d456eb1304a5d919893fd84d64736f6c63430008080033",
  "devdoc": {
    "author": "This contract is to demo a sample funding contract.",
    "details": "This implements pricefeeds as our library.",
    "kind": "dev",
    "methods": {},
    "title": "A Contract for crowd funding.",
    "version": 1
  },
  "userdoc": {
    "kind": "user",
    "methods": {},
    "notice": "This contract is to demo a sample funding contract.",
    "version": 1
  },
  "storageLayout": {
    "storage": [
      {
        "astId": 59,
        "contract": "contracts/FundMe.sol:FundMe",
        "label": "s_addressToAmountFunded",
        "offset": 0,
        "slot": "0",
        "type": "t_mapping(t_address,t_uint256)"
      },
      {
        "astId": 62,
        "contract": "contracts/FundMe.sol:FundMe",
        "label": "s_funders",
        "offset": 0,
        "slot": "1",
        "type": "t_array(t_address)dyn_storage"
      },
      {
        "astId": 64,
        "contract": "contracts/FundMe.sol:FundMe",
        "label": "i_owner",
        "offset": 0,
        "slot": "2",
        "type": "t_address"
      }
    ],
    "types": {
      "t_address": {
        "encoding": "inplace",
        "label": "address",
        "numberOfBytes": "20"
      },
      "t_array(t_address)dyn_storage": {
        "base": "t_address",
        "encoding": "dynamic_array",
        "label": "address[]",
        "numberOfBytes": "32"
      },
      "t_mapping(t_address,t_uint256)": {
        "encoding": "mapping",
        "key": "t_address",
        "label": "mapping(address => uint256)",
        "numberOfBytes": "32",
        "value": "t_uint256"
      },
      "t_uint256": {
        "encoding": "inplace",
        "label": "uint256",
        "numberOfBytes": "32"
      }
    }
  }
}