{
  "_format": "hh-sol-artifact-1",
  "contractName": "Raffle",
  "sourceName": "contracts/Raffle.sol",
  "abi": [
    {
      "inputs": [
        {
          "internalType": "address",
          "name": "vrfCoordinatorV2",
          "type": "address"
        },
        {
          "internalType": "uint256",
          "name": "_entranceFee",
          "type": "uint256"
        },
        {
          "internalType": "uint64",
          "name": "subscriptionId",
          "type": "uint64"
        },
        {
          "internalType": "bytes32",
          "name": "gasLane",
          "type": "bytes32"
        },
        {
          "internalType": "uint32",
          "name": "callbackGasLimit",
          "type": "uint32"
        },
        {
          "internalType": "uint256",
          "name": "interval",
          "type": "uint256"
        }
      ],
      "stateMutability": "nonpayable",
      "type": "constructor"
    },
    {
      "inputs": [
        {
          "internalType": "address",
          "name": "have",
          "type": "address"
        },
        {
          "internalType": "address",
          "name": "want",
          "type": "address"
        }
      ],
      "name": "OnlyCoordinatorCanFulfill",
      "type": "error"
    },
    {
      "inputs": [],
      "name": "Raffle_NotEnoughETHEntered",
      "type": "error"
    },
    {
      "inputs": [],
      "name": "Raffle_NotOpen",
      "type": "error"
    },
    {
      "inputs": [],
      "name": "Raffle_TransferFailed",
      "type": "error"
    },
    {
      "inputs": [
        {
          "internalType": "uint256",
          "name": "numPlayers",
          "type": "uint256"
        },
        {
          "internalType": "uint256",
          "name": "raffleState",
          "type": "uint256"
        }
      ],
      "name": "Raffle_UpkeepNotNeeded",
      "type": "error"
    },
    {
      "anonymous": false,
      "inputs": [
        {
          "indexed": true,
          "internalType": "address",
          "name": "player",
          "type": "address"
        }
      ],
      "name": "RaffleEnter",
      "type": "event"
    },
    {
      "anonymous": false,
      "inputs": [
        {
          "indexed": true,
          "internalType": "uint256",
          "name": "requestId",
          "type": "uint256"
        }
      ],
      "name": "RequestedRaffleWinner",
      "type": "event"
    },
    {
      "anonymous": false,
      "inputs": [
        {
          "indexed": true,
          "internalType": "address",
          "name": "winner",
          "type": "address"
        }
      ],
      "name": "WinnerPicked",
      "type": "event"
    },
    {
      "inputs": [
        {
          "internalType": "bytes",
          "name": "",
          "type": "bytes"
        }
      ],
      "name": "checkUpKeep",
      "outputs": [
        {
          "internalType": "bool",
          "name": "upkeepNeeded",
          "type": "bool"
        },
        {
          "internalType": "bytes",
          "name": "",
          "type": "bytes"
        }
      ],
      "stateMutability": "view",
      "type": "function"
    },
    {
      "inputs": [],
      "name": "enterRaffle",
      "outputs": [],
      "stateMutability": "payable",
      "type": "function"
    },
    {
      "inputs": [],
      "name": "getEntranceFee",
      "outputs": [
        {
          "internalType": "uint256",
          "name": "",
          "type": "uint256"
        }
      ],
      "stateMutability": "view",
      "type": "function"
    },
    {
      "inputs": [],
      "name": "getInterval",
      "outputs": [
        {
          "internalType": "uint256",
          "name": "",
          "type": "uint256"
        }
      ],
      "stateMutability": "view",
      "type": "function"
    },
    {
      "inputs": [],
      "name": "getLatestTimestamp",
      "outputs": [
        {
          "internalType": "uint256",
          "name": "",
          "type": "uint256"
        }
      ],
      "stateMutability": "view",
      "type": "function"
    },
    {
      "inputs": [],
      "name": "getNumWords",
      "outputs": [
        {
          "internalType": "uint256",
          "name": "",
          "type": "uint256"
        }
      ],
      "stateMutability": "pure",
      "type": "function"
    },
    {
      "inputs": [
        {
          "internalType": "uint256",
          "name": "index",
          "type": "uint256"
        }
      ],
      "name": "getPlayer",
      "outputs": [
        {
          "internalType": "address",
          "name": "",
          "type": "address"
        }
      ],
      "stateMutability": "view",
      "type": "function"
    },
    {
      "inputs": [
        {
          "internalType": "uint256",
          "name": "i",
          "type": "uint256"
        }
      ],
      "name": "getPlayers",
      "outputs": [
        {
          "internalType": "address",
          "name": "",
          "type": "address"
        }
      ],
      "stateMutability": "view",
      "type": "function"
    },
    {
      "inputs": [],
      "name": "getRaffleState",
      "outputs": [
        {
          "internalType": "enum Raffle.RaffleState",
          "name": "",
          "type": "uint8"
        }
      ],
      "stateMutability": "view",
      "type": "function"
    },
    {
      "inputs": [],
      "name": "getRecentWinner",
      "outputs": [
        {
          "internalType": "address",
          "name": "",
          "type": "address"
        }
      ],
      "stateMutability": "view",
      "type": "function"
    },
    {
      "inputs": [
        {
          "internalType": "bytes",
          "name": "",
          "type": "bytes"
        }
      ],
      "name": "performUpkeep",
      "outputs": [],
      "stateMutability": "nonpayable",
      "type": "function"
    },
    {
      "inputs": [
        {
          "internalType": "uint256",
          "name": "requestId",
          "type": "uint256"
        },
        {
          "internalType": "uint256[]",
          "name": "randomWords",
          "type": "uint256[]"
        }
      ],
      "name": "rawFulfillRandomWords",
      "outputs": [],
      "stateMutability": "nonpayable",
      "type": "function"
    }
  ],
  "bytecode": "0x6101606040523480156200001257600080fd5b50604051620017d3380380620017d3833981810160405281019062000038919062000294565b858073ffffffffffffffffffffffffffffffffffffffff1660808173ffffffffffffffffffffffffffffffffffffffff1681525050508460a081815250508573ffffffffffffffffffffffffffffffffffffffff166101408173ffffffffffffffffffffffffffffffffffffffff16815250508260c081815250508367ffffffffffffffff1660e08167ffffffffffffffff16815250508163ffffffff166101008163ffffffff16815250506000600160146101000a81548160ff021916908360028111156200010d576200010c62000330565b5b0217905550426002819055508061012081815250505050505050506200035f565b600080fd5b600073ffffffffffffffffffffffffffffffffffffffff82169050919050565b6000620001608262000133565b9050919050565b620001728162000153565b81146200017e57600080fd5b50565b600081519050620001928162000167565b92915050565b6000819050919050565b620001ad8162000198565b8114620001b957600080fd5b50565b600081519050620001cd81620001a2565b92915050565b600067ffffffffffffffff82169050919050565b620001f281620001d3565b8114620001fe57600080fd5b50565b6000815190506200021281620001e7565b92915050565b6000819050919050565b6200022d8162000218565b81146200023957600080fd5b50565b6000815190506200024d8162000222565b92915050565b600063ffffffff82169050919050565b6200026e8162000253565b81146200027a57600080fd5b50565b6000815190506200028e8162000263565b92915050565b60008060008060008060c08789031215620002b457620002b36200012e565b5b6000620002c489828a0162000181565b9650506020620002d789828a01620001bc565b9550506040620002ea89828a0162000201565b9450506060620002fd89828a016200023c565b93505060806200031089828a016200027d565b92505060a06200032389828a01620001bc565b9150509295509295509295565b7f4e487b7100000000000000000000000000000000000000000000000000000000600052602160045260246000fd5b60805160a05160c05160e051610100516101205161014051611404620003cf60003960006105e50152600081816107e0015261083d0152600061066501526000610642015260006106210152600081816102c601526103c3015260008181610303015261035701526114046000f3fe6080604052600436106100a75760003560e01c8063473f1ddc11610064578063473f1ddc1461019b57806353a2c19a146101c65780635e6c102e146101f157806391ad27b41461022f578063e55ae4e81461025a578063f43b52cb14610297576100a7565b806309bc33a7146100ac578063115cbaf5146100d75780631fe543e3146101025780632cfcc5391461012b5780634585e33b14610135578063460e20491461015e575b600080fd5b3480156100b857600080fd5b506100c16102c2565b6040516100ce9190610b9c565b60405180910390f35b3480156100e357600080fd5b506100ec6102ea565b6040516100f99190610c2e565b60405180910390f35b34801561010e57600080fd5b5061012960048036038101906101249190610de2565b610301565b005b6101336103c1565b005b34801561014157600080fd5b5061015c60048036038101906101579190610e99565b610530565b005b34801561016a57600080fd5b5061018560048036038101906101809190610ee6565b61071e565b6040516101929190610f54565b60405180910390f35b3480156101a757600080fd5b506101b0610765565b6040516101bd9190610f54565b60405180910390f35b3480156101d257600080fd5b506101db61078f565b6040516101e89190610b9c565b60405180910390f35b3480156101fd57600080fd5b5061021860048036038101906102139190611024565b61079e565b604051610226929190611107565b60405180910390f35b34801561023b57600080fd5b50610244610839565b6040516102519190610b9c565b60405180910390f35b34801561026657600080fd5b50610281600480360381019061027c9190610ee6565b610861565b60405161028e9190610f54565b60405180910390f35b3480156102a357600080fd5b506102ac6108a8565b6040516102b99190610b9c565b60405180910390f35b60007f0000000000000000000000000000000000000000000000000000000000000000905090565b6000600160149054906101000a900460ff16905090565b7f000000000000000000000000000000000000000000000000000000000000000073ffffffffffffffffffffffffffffffffffffffff163373ffffffffffffffffffffffffffffffffffffffff16146103b357337f00000000000000000000000000000000000000000000000000000000000000006040517f1cf993f40000000000000000000000000000000000000000000000000000000081526004016103aa929190611137565b60405180910390fd5b6103bd82826108b2565b5050565b7f000000000000000000000000000000000000000000000000000000000000000034101561041b576040517f74938f2700000000000000000000000000000000000000000000000000000000815260040160405180910390fd5b6000600281111561042f5761042e610bb7565b5b600160149054906101000a900460ff16600281111561045157610450610bb7565b5b14610488576040517fd6e19a8d00000000000000000000000000000000000000000000000000000000815260040160405180910390fd5b6000339080600181540180825580915050600190039060005260206000200160009091909190916101000a81548173ffffffffffffffffffffffffffffffffffffffff021916908373ffffffffffffffffffffffffffffffffffffffff1602179055503373ffffffffffffffffffffffffffffffffffffffff167f0805e1d667bddb8a95f0f09880cf94f403fb596ce79928d9f29b74203ba284d460405160405180910390a2565b600061054a6040518060200160405280600081525061079e565b509050806105b757600080549050600160149054906101000a900460ff16600281111561057a57610579610bb7565b5b6040517f096b6bce0000000000000000000000000000000000000000000000000000000081526004016105ae929190611160565b60405180910390fd5b60018060146101000a81548160ff021916908360028111156105dc576105db610bb7565b5b021790555060007f000000000000000000000000000000000000000000000000000000000000000073ffffffffffffffffffffffffffffffffffffffff16635d3b1d307f00000000000000000000000000000000000000000000000000000000000000007f000000000000000000000000000000000000000000000000000000000000000060037f000000000000000000000000000000000000000000000000000000000000000060016040518663ffffffff1660e01b81526004016106a6959493929190611201565b6020604051808303816000875af11580156106c5573d6000803e3d6000fd5b505050506040513d601f19601f820116820180604052508101906106e99190611269565b9050807fcd6e45c8998311cab7e9d4385596cac867e20a0587194b954fa3a731c93ce78b60405160405180910390a250505050565b600080828154811061073357610732611296565b5b9060005260206000200160009054906101000a900473ffffffffffffffffffffffffffffffffffffffff169050919050565b6000600160009054906101000a900473ffffffffffffffffffffffffffffffffffffffff16905090565b6000600163ffffffff16905090565b6000606060008060028111156107b7576107b6610bb7565b5b600160149054906101000a900460ff1660028111156107d9576107d8610bb7565b5b14905060007f00000000000000000000000000000000000000000000000000000000000000006002544261080d91906112f4565b1190506000806000805490501190508280156108265750815b801561082f5750805b9450505050915091565b60007f0000000000000000000000000000000000000000000000000000000000000000905090565b600080828154811061087657610875611296565b5b9060005260206000200160009054906101000a900473ffffffffffffffffffffffffffffffffffffffff169050919050565b6000600254905090565b60008080549050826000815181106108cd576108cc611296565b5b60200260200101516108df9190611357565b905060008082815481106108f6576108f5611296565b5b9060005260206000200160009054906101000a900473ffffffffffffffffffffffffffffffffffffffff16905080600160006101000a81548173ffffffffffffffffffffffffffffffffffffffff021916908373ffffffffffffffffffffffffffffffffffffffff16021790555060008173ffffffffffffffffffffffffffffffffffffffff164760405161098a906113b9565b60006040518083038185875af1925050503d80600081146109c7576040519150601f19603f3d011682016040523d82523d6000602084013e6109cc565b606091505b50509050600067ffffffffffffffff8111156109eb576109ea610c9f565b5b604051908082528060200260200182016040528015610a195781602001602082028036833780820191505090505b5060009080519060200190610a2f929190610adc565b5080610a67576040517fba31c4f300000000000000000000000000000000000000000000000000000000815260040160405180910390fd5b8173ffffffffffffffffffffffffffffffffffffffff167f5b690ec4a06fe979403046eaeea5b3ce38524683c3001f662c8b5a829632f7df60405160405180910390a26000600160146101000a81548160ff02191690836002811115610ad057610acf610bb7565b5b02179055505050505050565b828054828255906000526020600020908101928215610b55579160200282015b82811115610b545782518260006101000a81548173ffffffffffffffffffffffffffffffffffffffff021916908373ffffffffffffffffffffffffffffffffffffffff16021790555091602001919060010190610afc565b5b509050610b629190610b66565b5090565b5b80821115610b7f576000816000905550600101610b67565b5090565b6000819050919050565b610b9681610b83565b82525050565b6000602082019050610bb16000830184610b8d565b92915050565b7f4e487b7100000000000000000000000000000000000000000000000000000000600052602160045260246000fd5b60038110610bf757610bf6610bb7565b5b50565b6000819050610c0882610be6565b919050565b6000610c1882610bfa565b9050919050565b610c2881610c0d565b82525050565b6000602082019050610c436000830184610c1f565b92915050565b6000604051905090565b600080fd5b600080fd5b610c6681610b83565b8114610c7157600080fd5b50565b600081359050610c8381610c5d565b92915050565b600080fd5b6000601f19601f8301169050919050565b7f4e487b7100000000000000000000000000000000000000000000000000000000600052604160045260246000fd5b610cd782610c8e565b810181811067ffffffffffffffff82111715610cf657610cf5610c9f565b5b80604052505050565b6000610d09610c49565b9050610d158282610cce565b919050565b600067ffffffffffffffff821115610d3557610d34610c9f565b5b602082029050602081019050919050565b600080fd5b6000610d5e610d5984610d1a565b610cff565b90508083825260208201905060208402830185811115610d8157610d80610d46565b5b835b81811015610daa5780610d968882610c74565b845260208401935050602081019050610d83565b5050509392505050565b600082601f830112610dc957610dc8610c89565b5b8135610dd9848260208601610d4b565b91505092915050565b60008060408385031215610df957610df8610c53565b5b6000610e0785828601610c74565b925050602083013567ffffffffffffffff811115610e2857610e27610c58565b5b610e3485828601610db4565b9150509250929050565b600080fd5b60008083601f840112610e5957610e58610c89565b5b8235905067ffffffffffffffff811115610e7657610e75610e3e565b5b602083019150836001820283011115610e9257610e91610d46565b5b9250929050565b60008060208385031215610eb057610eaf610c53565b5b600083013567ffffffffffffffff811115610ece57610ecd610c58565b5b610eda85828601610e43565b92509250509250929050565b600060208284031215610efc57610efb610c53565b5b6000610f0a84828501610c74565b91505092915050565b600073ffffffffffffffffffffffffffffffffffffffff82169050919050565b6000610f3e82610f13565b9050919050565b610f4e81610f33565b82525050565b6000602082019050610f696000830184610f45565b92915050565b600080fd5b600067ffffffffffffffff821115610f8f57610f8e610c9f565b5b610f9882610c8e565b9050602081019050919050565b82818337600083830152505050565b6000610fc7610fc284610f74565b610cff565b905082815260208101848484011115610fe357610fe2610f6f565b5b610fee848285610fa5565b509392505050565b600082601f83011261100b5761100a610c89565b5b813561101b848260208601610fb4565b91505092915050565b60006020828403121561103a57611039610c53565b5b600082013567ffffffffffffffff81111561105857611057610c58565b5b61106484828501610ff6565b91505092915050565b60008115159050919050565b6110828161106d565b82525050565b600081519050919050565b600082825260208201905092915050565b60005b838110156110c25780820151818401526020810190506110a7565b60008484015250505050565b60006110d982611088565b6110e38185611093565b93506110f38185602086016110a4565b6110fc81610c8e565b840191505092915050565b600060408201905061111c6000830185611079565b818103602083015261112e81846110ce565b90509392505050565b600060408201905061114c6000830185610f45565b6111596020830184610f45565b9392505050565b60006040820190506111756000830185610b8d565b6111826020830184610b8d565b9392505050565b6000819050919050565b61119c81611189565b82525050565b600067ffffffffffffffff82169050919050565b6111bf816111a2565b82525050565b600061ffff82169050919050565b6111dc816111c5565b82525050565b600063ffffffff82169050919050565b6111fb816111e2565b82525050565b600060a0820190506112166000830188611193565b61122360208301876111b6565b61123060408301866111d3565b61123d60608301856111f2565b61124a60808301846111f2565b9695505050505050565b60008151905061126381610c5d565b92915050565b60006020828403121561127f5761127e610c53565b5b600061128d84828501611254565b91505092915050565b7f4e487b7100000000000000000000000000000000000000000000000000000000600052603260045260246000fd5b7f4e487b7100000000000000000000000000000000000000000000000000000000600052601160045260246000fd5b60006112ff82610b83565b915061130a83610b83565b9250828203905081811115611322576113216112c5565b5b92915050565b7f4e487b7100000000000000000000000000000000000000000000000000000000600052601260045260246000fd5b600061136282610b83565b915061136d83610b83565b92508261137d5761137c611328565b5b828206905092915050565b600081905092915050565b50565b60006113a3600083611388565b91506113ae82611393565b600082019050919050565b60006113c482611396565b915081905091905056fea2646970667358221220d7f88e1f866fe10389286b364f9210445c778270664839f81d092c876406918a64736f6c63430008110033",
  "linkReferences": {},
  "deployedLinkReferences": {}
}