{
  "_format": "hh-sol-artifact-1",
  "contractName": "Raffle",
  "sourceName": "contracts/Raffle.sol",
  "abi": [
    {
      "inputs": [
        {
          "internalType": "address",
          "name": "vrfCoordinatorV2",
          "type": "address"
        },
        {
          "internalType": "uint256",
          "name": "_entranceFee",
          "type": "uint256"
        },
        {
          "internalType": "uint64",
          "name": "subscriptionId",
          "type": "uint64"
        },
        {
          "internalType": "bytes32",
          "name": "gasLane",
          "type": "bytes32"
        },
        {
          "internalType": "uint32",
          "name": "callbackGasLimit",
          "type": "uint32"
        },
        {
          "internalType": "uint256",
          "name": "interval",
          "type": "uint256"
        }
      ],
      "stateMutability": "nonpayable",
      "type": "constructor"
    },
    {
      "inputs": [
        {
          "internalType": "address",
          "name": "have",
          "type": "address"
        },
        {
          "internalType": "address",
          "name": "want",
          "type": "address"
        }
      ],
      "name": "OnlyCoordinatorCanFulfill",
      "type": "error"
    },
    {
      "inputs": [],
      "name": "Raffle_NotEnoughETHEntered",
      "type": "error"
    },
    {
      "inputs": [],
      "name": "Raffle_NotOpen",
      "type": "error"
    },
    {
      "inputs": [],
      "name": "Raffle_TransferFailed",
      "type": "error"
    },
    {
      "inputs": [
        {
          "internalType": "uint256",
          "name": "numPlayers",
          "type": "uint256"
        },
        {
          "internalType": "uint256",
          "name": "raffleState",
          "type": "uint256"
        }
      ],
      "name": "Raffle_UpkeepNotNeeded",
      "type": "error"
    },
    {
      "anonymous": false,
      "inputs": [
        {
          "indexed": true,
          "internalType": "address",
          "name": "player",
          "type": "address"
        }
      ],
      "name": "RaffleEnter",
      "type": "event"
    },
    {
      "anonymous": false,
      "inputs": [
        {
          "indexed": true,
          "internalType": "uint256",
          "name": "requestId",
          "type": "uint256"
        }
      ],
      "name": "RequestedRaffleWinner",
      "type": "event"
    },
    {
      "anonymous": false,
      "inputs": [
        {
          "indexed": true,
          "internalType": "address",
          "name": "winner",
          "type": "address"
        }
      ],
      "name": "WinnerPicked",
      "type": "event"
    },
    {
      "inputs": [
        {
          "internalType": "bytes",
          "name": "",
          "type": "bytes"
        }
      ],
      "name": "checkUpKeep",
      "outputs": [
        {
          "internalType": "bool",
          "name": "upkeepNeeded",
          "type": "bool"
        },
        {
          "internalType": "bytes",
          "name": "",
          "type": "bytes"
        }
      ],
      "stateMutability": "view",
      "type": "function"
    },
    {
      "inputs": [],
      "name": "enterRaffle",
      "outputs": [],
      "stateMutability": "payable",
      "type": "function"
    },
    {
      "inputs": [],
      "name": "getEntranceFee",
      "outputs": [
        {
          "internalType": "uint256",
          "name": "",
          "type": "uint256"
        }
      ],
      "stateMutability": "view",
      "type": "function"
    },
    {
      "inputs": [],
      "name": "getInterval",
      "outputs": [
        {
          "internalType": "uint256",
          "name": "",
          "type": "uint256"
        }
      ],
      "stateMutability": "view",
      "type": "function"
    },
    {
      "inputs": [],
      "name": "getNumWords",
      "outputs": [
        {
          "internalType": "uint256",
          "name": "",
          "type": "uint256"
        }
      ],
      "stateMutability": "pure",
      "type": "function"
    },
    {
      "inputs": [
        {
          "internalType": "uint256",
          "name": "i",
          "type": "uint256"
        }
      ],
      "name": "getPlayers",
      "outputs": [
        {
          "internalType": "address",
          "name": "",
          "type": "address"
        }
      ],
      "stateMutability": "view",
      "type": "function"
    },
    {
      "inputs": [],
      "name": "getRaffleState",
      "outputs": [
        {
          "internalType": "enum Raffle.RaffleState",
          "name": "",
          "type": "uint8"
        }
      ],
      "stateMutability": "view",
      "type": "function"
    },
    {
      "inputs": [],
      "name": "getRecentWinner",
      "outputs": [
        {
          "internalType": "address",
          "name": "",
          "type": "address"
        }
      ],
      "stateMutability": "view",
      "type": "function"
    },
    {
      "inputs": [
        {
          "internalType": "bytes",
          "name": "",
          "type": "bytes"
        }
      ],
      "name": "performUpkeep",
      "outputs": [],
      "stateMutability": "nonpayable",
      "type": "function"
    },
    {
      "inputs": [
        {
          "internalType": "uint256",
          "name": "requestId",
          "type": "uint256"
        },
        {
          "internalType": "uint256[]",
          "name": "randomWords",
          "type": "uint256[]"
        }
      ],
      "name": "rawFulfillRandomWords",
      "outputs": [],
      "stateMutability": "nonpayable",
      "type": "function"
    }
  ],
  "bytecode": "0x6101606040523480156200001257600080fd5b506040516200170438038062001704833981810160405281019062000038919062000294565b858073ffffffffffffffffffffffffffffffffffffffff1660808173ffffffffffffffffffffffffffffffffffffffff1681525050508460a081815250508573ffffffffffffffffffffffffffffffffffffffff166101408173ffffffffffffffffffffffffffffffffffffffff16815250508260c081815250508367ffffffffffffffff1660e08167ffffffffffffffff16815250508163ffffffff166101008163ffffffff16815250506000600160146101000a81548160ff021916908360028111156200010d576200010c62000330565b5b0217905550426002819055508061012081815250505050505050506200035f565b600080fd5b600073ffffffffffffffffffffffffffffffffffffffff82169050919050565b6000620001608262000133565b9050919050565b620001728162000153565b81146200017e57600080fd5b50565b600081519050620001928162000167565b92915050565b6000819050919050565b620001ad8162000198565b8114620001b957600080fd5b50565b600081519050620001cd81620001a2565b92915050565b600067ffffffffffffffff82169050919050565b620001f281620001d3565b8114620001fe57600080fd5b50565b6000815190506200021281620001e7565b92915050565b6000819050919050565b6200022d8162000218565b81146200023957600080fd5b50565b6000815190506200024d8162000222565b92915050565b600063ffffffff82169050919050565b6200026e8162000253565b81146200027a57600080fd5b50565b6000815190506200028e8162000263565b92915050565b60008060008060008060c08789031215620002b457620002b36200012e565b5b6000620002c489828a0162000181565b9650506020620002d789828a01620001bc565b9550506040620002ea89828a0162000201565b9450506060620002fd89828a016200023c565b93505060806200031089828a016200027d565b92505060a06200032389828a01620001bc565b9150509295509295509295565b7f4e487b7100000000000000000000000000000000000000000000000000000000600052602160045260246000fd5b60805160a05160c05160e051610100516101205161014051611335620003cf600039600061056701526000818161076201526107bf015260006105e7015260006105c4015260006105a3015260008181610248015261034501526000818161028501526102d901526113356000f3fe6080604052600436106100915760003560e01c8063460e204911610059578063460e204914610148578063473f1ddc1461018557806353a2c19a146101b05780635e6c102e146101db57806391ad27b41461021957610091565b806309bc33a714610096578063115cbaf5146100c15780631fe543e3146100ec5780632cfcc539146101155780634585e33b1461011f575b600080fd5b3480156100a257600080fd5b506100ab610244565b6040516100b89190610acd565b60405180910390f35b3480156100cd57600080fd5b506100d661026c565b6040516100e39190610b5f565b60405180910390f35b3480156100f857600080fd5b50610113600480360381019061010e9190610d13565b610283565b005b61011d610343565b005b34801561012b57600080fd5b5061014660048036038101906101419190610dca565b6104b2565b005b34801561015457600080fd5b5061016f600480360381019061016a9190610e17565b6106a0565b60405161017c9190610e85565b60405180910390f35b34801561019157600080fd5b5061019a6106e7565b6040516101a79190610e85565b60405180910390f35b3480156101bc57600080fd5b506101c5610711565b6040516101d29190610acd565b60405180910390f35b3480156101e757600080fd5b5061020260048036038101906101fd9190610f55565b610720565b604051610210929190611038565b60405180910390f35b34801561022557600080fd5b5061022e6107bb565b60405161023b9190610acd565b60405180910390f35b60007f0000000000000000000000000000000000000000000000000000000000000000905090565b6000600160149054906101000a900460ff16905090565b7f000000000000000000000000000000000000000000000000000000000000000073ffffffffffffffffffffffffffffffffffffffff163373ffffffffffffffffffffffffffffffffffffffff161461033557337f00000000000000000000000000000000000000000000000000000000000000006040517f1cf993f400000000000000000000000000000000000000000000000000000000815260040161032c929190611068565b60405180910390fd5b61033f82826107e3565b5050565b7f000000000000000000000000000000000000000000000000000000000000000034101561039d576040517f74938f2700000000000000000000000000000000000000000000000000000000815260040160405180910390fd5b600060028111156103b1576103b0610ae8565b5b600160149054906101000a900460ff1660028111156103d3576103d2610ae8565b5b1461040a576040517fd6e19a8d00000000000000000000000000000000000000000000000000000000815260040160405180910390fd5b6000339080600181540180825580915050600190039060005260206000200160009091909190916101000a81548173ffffffffffffffffffffffffffffffffffffffff021916908373ffffffffffffffffffffffffffffffffffffffff1602179055503373ffffffffffffffffffffffffffffffffffffffff167f0805e1d667bddb8a95f0f09880cf94f403fb596ce79928d9f29b74203ba284d460405160405180910390a2565b60006104cc60405180602001604052806000815250610720565b5090508061053957600080549050600160149054906101000a900460ff1660028111156104fc576104fb610ae8565b5b6040517f096b6bce000000000000000000000000000000000000000000000000000000008152600401610530929190611091565b60405180910390fd5b60018060146101000a81548160ff0219169083600281111561055e5761055d610ae8565b5b021790555060007f000000000000000000000000000000000000000000000000000000000000000073ffffffffffffffffffffffffffffffffffffffff16635d3b1d307f00000000000000000000000000000000000000000000000000000000000000007f000000000000000000000000000000000000000000000000000000000000000060037f000000000000000000000000000000000000000000000000000000000000000060016040518663ffffffff1660e01b8152600401610628959493929190611132565b6020604051808303816000875af1158015610647573d6000803e3d6000fd5b505050506040513d601f19601f8201168201806040525081019061066b919061119a565b9050807fcd6e45c8998311cab7e9d4385596cac867e20a0587194b954fa3a731c93ce78b60405160405180910390a250505050565b60008082815481106106b5576106b46111c7565b5b9060005260206000200160009054906101000a900473ffffffffffffffffffffffffffffffffffffffff169050919050565b6000600160009054906101000a900473ffffffffffffffffffffffffffffffffffffffff16905090565b6000600163ffffffff16905090565b60006060600080600281111561073957610738610ae8565b5b600160149054906101000a900460ff16600281111561075b5761075a610ae8565b5b14905060007f00000000000000000000000000000000000000000000000000000000000000006002544261078f9190611225565b1190506000806000805490501190508280156107a85750815b80156107b15750805b9450505050915091565b60007f0000000000000000000000000000000000000000000000000000000000000000905090565b60008080549050826000815181106107fe576107fd6111c7565b5b60200260200101516108109190611288565b90506000808281548110610827576108266111c7565b5b9060005260206000200160009054906101000a900473ffffffffffffffffffffffffffffffffffffffff16905080600160006101000a81548173ffffffffffffffffffffffffffffffffffffffff021916908373ffffffffffffffffffffffffffffffffffffffff16021790555060008173ffffffffffffffffffffffffffffffffffffffff16476040516108bb906112ea565b60006040518083038185875af1925050503d80600081146108f8576040519150601f19603f3d011682016040523d82523d6000602084013e6108fd565b606091505b50509050600067ffffffffffffffff81111561091c5761091b610bd0565b5b60405190808252806020026020018201604052801561094a5781602001602082028036833780820191505090505b5060009080519060200190610960929190610a0d565b5080610998576040517fba31c4f300000000000000000000000000000000000000000000000000000000815260040160405180910390fd5b8173ffffffffffffffffffffffffffffffffffffffff167f5b690ec4a06fe979403046eaeea5b3ce38524683c3001f662c8b5a829632f7df60405160405180910390a26000600160146101000a81548160ff02191690836002811115610a0157610a00610ae8565b5b02179055505050505050565b828054828255906000526020600020908101928215610a86579160200282015b82811115610a855782518260006101000a81548173ffffffffffffffffffffffffffffffffffffffff021916908373ffffffffffffffffffffffffffffffffffffffff16021790555091602001919060010190610a2d565b5b509050610a939190610a97565b5090565b5b80821115610ab0576000816000905550600101610a98565b5090565b6000819050919050565b610ac781610ab4565b82525050565b6000602082019050610ae26000830184610abe565b92915050565b7f4e487b7100000000000000000000000000000000000000000000000000000000600052602160045260246000fd5b60038110610b2857610b27610ae8565b5b50565b6000819050610b3982610b17565b919050565b6000610b4982610b2b565b9050919050565b610b5981610b3e565b82525050565b6000602082019050610b746000830184610b50565b92915050565b6000604051905090565b600080fd5b600080fd5b610b9781610ab4565b8114610ba257600080fd5b50565b600081359050610bb481610b8e565b92915050565b600080fd5b6000601f19601f8301169050919050565b7f4e487b7100000000000000000000000000000000000000000000000000000000600052604160045260246000fd5b610c0882610bbf565b810181811067ffffffffffffffff82111715610c2757610c26610bd0565b5b80604052505050565b6000610c3a610b7a565b9050610c468282610bff565b919050565b600067ffffffffffffffff821115610c6657610c65610bd0565b5b602082029050602081019050919050565b600080fd5b6000610c8f610c8a84610c4b565b610c30565b90508083825260208201905060208402830185811115610cb257610cb1610c77565b5b835b81811015610cdb5780610cc78882610ba5565b845260208401935050602081019050610cb4565b5050509392505050565b600082601f830112610cfa57610cf9610bba565b5b8135610d0a848260208601610c7c565b91505092915050565b60008060408385031215610d2a57610d29610b84565b5b6000610d3885828601610ba5565b925050602083013567ffffffffffffffff811115610d5957610d58610b89565b5b610d6585828601610ce5565b9150509250929050565b600080fd5b60008083601f840112610d8a57610d89610bba565b5b8235905067ffffffffffffffff811115610da757610da6610d6f565b5b602083019150836001820283011115610dc357610dc2610c77565b5b9250929050565b60008060208385031215610de157610de0610b84565b5b600083013567ffffffffffffffff811115610dff57610dfe610b89565b5b610e0b85828601610d74565b92509250509250929050565b600060208284031215610e2d57610e2c610b84565b5b6000610e3b84828501610ba5565b91505092915050565b600073ffffffffffffffffffffffffffffffffffffffff82169050919050565b6000610e6f82610e44565b9050919050565b610e7f81610e64565b82525050565b6000602082019050610e9a6000830184610e76565b92915050565b600080fd5b600067ffffffffffffffff821115610ec057610ebf610bd0565b5b610ec982610bbf565b9050602081019050919050565b82818337600083830152505050565b6000610ef8610ef384610ea5565b610c30565b905082815260208101848484011115610f1457610f13610ea0565b5b610f1f848285610ed6565b509392505050565b600082601f830112610f3c57610f3b610bba565b5b8135610f4c848260208601610ee5565b91505092915050565b600060208284031215610f6b57610f6a610b84565b5b600082013567ffffffffffffffff811115610f8957610f88610b89565b5b610f9584828501610f27565b91505092915050565b60008115159050919050565b610fb381610f9e565b82525050565b600081519050919050565b600082825260208201905092915050565b60005b83811015610ff3578082015181840152602081019050610fd8565b60008484015250505050565b600061100a82610fb9565b6110148185610fc4565b9350611024818560208601610fd5565b61102d81610bbf565b840191505092915050565b600060408201905061104d6000830185610faa565b818103602083015261105f8184610fff565b90509392505050565b600060408201905061107d6000830185610e76565b61108a6020830184610e76565b9392505050565b60006040820190506110a66000830185610abe565b6110b36020830184610abe565b9392505050565b6000819050919050565b6110cd816110ba565b82525050565b600067ffffffffffffffff82169050919050565b6110f0816110d3565b82525050565b600061ffff82169050919050565b61110d816110f6565b82525050565b600063ffffffff82169050919050565b61112c81611113565b82525050565b600060a08201905061114760008301886110c4565b61115460208301876110e7565b6111616040830186611104565b61116e6060830185611123565b61117b6080830184611123565b9695505050505050565b60008151905061119481610b8e565b92915050565b6000602082840312156111b0576111af610b84565b5b60006111be84828501611185565b91505092915050565b7f4e487b7100000000000000000000000000000000000000000000000000000000600052603260045260246000fd5b7f4e487b7100000000000000000000000000000000000000000000000000000000600052601160045260246000fd5b600061123082610ab4565b915061123b83610ab4565b9250828203905081811115611253576112526111f6565b5b92915050565b7f4e487b7100000000000000000000000000000000000000000000000000000000600052601260045260246000fd5b600061129382610ab4565b915061129e83610ab4565b9250826112ae576112ad611259565b5b828206905092915050565b600081905092915050565b50565b60006112d46000836112b9565b91506112df826112c4565b600082019050919050565b60006112f5826112c7565b915081905091905056fea26469706673582212205ab1e1d3f89ec95252a5321726aa7e998886adce0390ea3d6c0d7db5085ad29b64736f6c63430008110033",
  "linkReferences": {},
  "deployedLinkReferences": {}
}