{
  "_format": "hh-sol-artifact-1",
  "contractName": "Raffle",
  "sourceName": "contracts/Raffle.sol",
  "abi": [
    {
      "inputs": [
        {
          "internalType": "address",
          "name": "vrfCoordinatorV2",
          "type": "address"
        },
        {
          "internalType": "uint256",
          "name": "_entranceFee",
          "type": "uint256"
        },
        {
          "internalType": "uint64",
          "name": "subscriptionId",
          "type": "uint64"
        },
        {
          "internalType": "bytes32",
          "name": "gasLane",
          "type": "bytes32"
        },
        {
          "internalType": "uint32",
          "name": "callbackGasLimit",
          "type": "uint32"
        },
        {
          "internalType": "uint256",
          "name": "interval",
          "type": "uint256"
        }
      ],
      "stateMutability": "nonpayable",
      "type": "constructor"
    },
    {
      "inputs": [
        {
          "internalType": "address",
          "name": "have",
          "type": "address"
        },
        {
          "internalType": "address",
          "name": "want",
          "type": "address"
        }
      ],
      "name": "OnlyCoordinatorCanFulfill",
      "type": "error"
    },
    {
      "inputs": [],
      "name": "Raffle_NotEnoughETHEntered",
      "type": "error"
    },
    {
      "inputs": [],
      "name": "Raffle_NotOpen",
      "type": "error"
    },
    {
      "inputs": [],
      "name": "Raffle_TransferFailed",
      "type": "error"
    },
    {
      "inputs": [
        {
          "internalType": "uint256",
          "name": "numPlayers",
          "type": "uint256"
        },
        {
          "internalType": "uint256",
          "name": "raffleState",
          "type": "uint256"
        }
      ],
      "name": "Raffle_UpkeepNotNeeded",
      "type": "error"
    },
    {
      "anonymous": false,
      "inputs": [
        {
          "indexed": true,
          "internalType": "address",
          "name": "player",
          "type": "address"
        }
      ],
      "name": "RaffleEnter",
      "type": "event"
    },
    {
      "anonymous": false,
      "inputs": [
        {
          "indexed": true,
          "internalType": "uint256",
          "name": "requestId",
          "type": "uint256"
        }
      ],
      "name": "RequestedRaffleWinner",
      "type": "event"
    },
    {
      "anonymous": false,
      "inputs": [
        {
          "indexed": true,
          "internalType": "address",
          "name": "winner",
          "type": "address"
        }
      ],
      "name": "WinnerPicked",
      "type": "event"
    },
    {
      "inputs": [
        {
          "internalType": "bytes",
          "name": "",
          "type": "bytes"
        }
      ],
      "name": "checkUpKeep",
      "outputs": [
        {
          "internalType": "bool",
          "name": "upkeepNeeded",
          "type": "bool"
        },
        {
          "internalType": "bytes",
          "name": "",
          "type": "bytes"
        }
      ],
      "stateMutability": "view",
      "type": "function"
    },
    {
      "inputs": [],
      "name": "enterRaffle",
      "outputs": [],
      "stateMutability": "payable",
      "type": "function"
    },
    {
      "inputs": [],
      "name": "getEntranceFee",
      "outputs": [
        {
          "internalType": "uint256",
          "name": "",
          "type": "uint256"
        }
      ],
      "stateMutability": "view",
      "type": "function"
    },
    {
      "inputs": [],
      "name": "getNumWords",
      "outputs": [
        {
          "internalType": "uint256",
          "name": "",
          "type": "uint256"
        }
      ],
      "stateMutability": "pure",
      "type": "function"
    },
    {
      "inputs": [
        {
          "internalType": "uint256",
          "name": "i",
          "type": "uint256"
        }
      ],
      "name": "getPlayers",
      "outputs": [
        {
          "internalType": "address",
          "name": "",
          "type": "address"
        }
      ],
      "stateMutability": "view",
      "type": "function"
    },
    {
      "inputs": [],
      "name": "getRaffleState",
      "outputs": [
        {
          "internalType": "enum Raffle.RaffleState",
          "name": "",
          "type": "uint8"
        }
      ],
      "stateMutability": "view",
      "type": "function"
    },
    {
      "inputs": [],
      "name": "getRecentWinner",
      "outputs": [
        {
          "internalType": "address",
          "name": "",
          "type": "address"
        }
      ],
      "stateMutability": "view",
      "type": "function"
    },
    {
      "inputs": [
        {
          "internalType": "bytes",
          "name": "",
          "type": "bytes"
        }
      ],
      "name": "performUpkeep",
      "outputs": [],
      "stateMutability": "nonpayable",
      "type": "function"
    },
    {
      "inputs": [
        {
          "internalType": "uint256",
          "name": "requestId",
          "type": "uint256"
        },
        {
          "internalType": "uint256[]",
          "name": "randomWords",
          "type": "uint256[]"
        }
      ],
      "name": "rawFulfillRandomWords",
      "outputs": [],
      "stateMutability": "nonpayable",
      "type": "function"
    }
  ],
  "bytecode": "0x6101606040523480156200001257600080fd5b506040516200169f3803806200169f833981810160405281019062000038919062000294565b858073ffffffffffffffffffffffffffffffffffffffff1660808173ffffffffffffffffffffffffffffffffffffffff1681525050508460a081815250508573ffffffffffffffffffffffffffffffffffffffff166101408173ffffffffffffffffffffffffffffffffffffffff16815250508260c081815250508367ffffffffffffffff1660e08167ffffffffffffffff16815250508163ffffffff166101008163ffffffff16815250506000600160146101000a81548160ff021916908360028111156200010d576200010c62000330565b5b0217905550426002819055508061012081815250505050505050506200035f565b600080fd5b600073ffffffffffffffffffffffffffffffffffffffff82169050919050565b6000620001608262000133565b9050919050565b620001728162000153565b81146200017e57600080fd5b50565b600081519050620001928162000167565b92915050565b6000819050919050565b620001ad8162000198565b8114620001b957600080fd5b50565b600081519050620001cd81620001a2565b92915050565b600067ffffffffffffffff82169050919050565b620001f281620001d3565b8114620001fe57600080fd5b50565b6000815190506200021281620001e7565b92915050565b6000819050919050565b6200022d8162000218565b81146200023957600080fd5b50565b6000815190506200024d8162000222565b92915050565b600063ffffffff82169050919050565b6200026e8162000253565b81146200027a57600080fd5b50565b6000815190506200028e8162000263565b92915050565b60008060008060008060c08789031215620002b457620002b36200012e565b5b6000620002c489828a0162000181565b9650506020620002d789828a01620001bc565b9550506040620002ea89828a0162000201565b9450506060620002fd89828a016200023c565b93505060806200031089828a016200027d565b92505060a06200032389828a01620001bc565b9150509295509295509295565b7f4e487b7100000000000000000000000000000000000000000000000000000000600052602160045260246000fd5b60805160a05160c05160e0516101005161012051610140516112d7620003c860003960006105310152600061072c015260006105b10152600061058e0152600061056d015260008181610212015261030f01526000818161024f01526102a301526112d76000f3fe6080604052600436106100865760003560e01c80634585e33b116100595780634585e33b14610114578063460e20491461013d578063473f1ddc1461017a57806353a2c19a146101a55780635e6c102e146101d057610086565b806309bc33a71461008b578063115cbaf5146100b65780631fe543e3146100e15780632cfcc5391461010a575b600080fd5b34801561009757600080fd5b506100a061020e565b6040516100ad9190610a6f565b60405180910390f35b3480156100c257600080fd5b506100cb610236565b6040516100d89190610b01565b60405180910390f35b3480156100ed57600080fd5b5061010860048036038101906101039190610cb5565b61024d565b005b61011261030d565b005b34801561012057600080fd5b5061013b60048036038101906101369190610d6c565b61047c565b005b34801561014957600080fd5b50610164600480360381019061015f9190610db9565b61066a565b6040516101719190610e27565b60405180910390f35b34801561018657600080fd5b5061018f6106b1565b60405161019c9190610e27565b60405180910390f35b3480156101b157600080fd5b506101ba6106db565b6040516101c79190610a6f565b60405180910390f35b3480156101dc57600080fd5b506101f760048036038101906101f29190610ef7565b6106ea565b604051610205929190610fda565b60405180910390f35b60007f0000000000000000000000000000000000000000000000000000000000000000905090565b6000600160149054906101000a900460ff16905090565b7f000000000000000000000000000000000000000000000000000000000000000073ffffffffffffffffffffffffffffffffffffffff163373ffffffffffffffffffffffffffffffffffffffff16146102ff57337f00000000000000000000000000000000000000000000000000000000000000006040517f1cf993f40000000000000000000000000000000000000000000000000000000081526004016102f692919061100a565b60405180910390fd5b6103098282610785565b5050565b7f0000000000000000000000000000000000000000000000000000000000000000341115610367576040517f74938f2700000000000000000000000000000000000000000000000000000000815260040160405180910390fd5b6000600281111561037b5761037a610a8a565b5b600160149054906101000a900460ff16600281111561039d5761039c610a8a565b5b146103d4576040517fd6e19a8d00000000000000000000000000000000000000000000000000000000815260040160405180910390fd5b6000339080600181540180825580915050600190039060005260206000200160009091909190916101000a81548173ffffffffffffffffffffffffffffffffffffffff021916908373ffffffffffffffffffffffffffffffffffffffff1602179055503373ffffffffffffffffffffffffffffffffffffffff167f0805e1d667bddb8a95f0f09880cf94f403fb596ce79928d9f29b74203ba284d460405160405180910390a2565b6000610496604051806020016040528060008152506106ea565b5090508061050357600080549050600160149054906101000a900460ff1660028111156104c6576104c5610a8a565b5b6040517f096b6bce0000000000000000000000000000000000000000000000000000000081526004016104fa929190611033565b60405180910390fd5b60018060146101000a81548160ff0219169083600281111561052857610527610a8a565b5b021790555060007f000000000000000000000000000000000000000000000000000000000000000073ffffffffffffffffffffffffffffffffffffffff16635d3b1d307f00000000000000000000000000000000000000000000000000000000000000007f000000000000000000000000000000000000000000000000000000000000000060037f000000000000000000000000000000000000000000000000000000000000000060016040518663ffffffff1660e01b81526004016105f29594939291906110d4565b6020604051808303816000875af1158015610611573d6000803e3d6000fd5b505050506040513d601f19601f82011682018060405250810190610635919061113c565b9050807fcd6e45c8998311cab7e9d4385596cac867e20a0587194b954fa3a731c93ce78b60405160405180910390a250505050565b600080828154811061067f5761067e611169565b5b9060005260206000200160009054906101000a900473ffffffffffffffffffffffffffffffffffffffff169050919050565b6000600160009054906101000a900473ffffffffffffffffffffffffffffffffffffffff16905090565b6000600163ffffffff16905090565b60006060600080600281111561070357610702610a8a565b5b600160149054906101000a900460ff16600281111561072557610724610a8a565b5b14905060007f00000000000000000000000000000000000000000000000000000000000000006002544261075991906111c7565b1190506000806000805490501190508280156107725750815b801561077b5750805b9450505050915091565b60008080549050826000815181106107a05761079f611169565b5b60200260200101516107b2919061122a565b905060008082815481106107c9576107c8611169565b5b9060005260206000200160009054906101000a900473ffffffffffffffffffffffffffffffffffffffff16905080600160006101000a81548173ffffffffffffffffffffffffffffffffffffffff021916908373ffffffffffffffffffffffffffffffffffffffff16021790555060008173ffffffffffffffffffffffffffffffffffffffff164760405161085d9061128c565b60006040518083038185875af1925050503d806000811461089a576040519150601f19603f3d011682016040523d82523d6000602084013e61089f565b606091505b50509050600067ffffffffffffffff8111156108be576108bd610b72565b5b6040519080825280602002602001820160405280156108ec5781602001602082028036833780820191505090505b50600090805190602001906109029291906109af565b508061093a576040517fba31c4f300000000000000000000000000000000000000000000000000000000815260040160405180910390fd5b8173ffffffffffffffffffffffffffffffffffffffff167f5b690ec4a06fe979403046eaeea5b3ce38524683c3001f662c8b5a829632f7df60405160405180910390a26000600160146101000a81548160ff021916908360028111156109a3576109a2610a8a565b5b02179055505050505050565b828054828255906000526020600020908101928215610a28579160200282015b82811115610a275782518260006101000a81548173ffffffffffffffffffffffffffffffffffffffff021916908373ffffffffffffffffffffffffffffffffffffffff160217905550916020019190600101906109cf565b5b509050610a359190610a39565b5090565b5b80821115610a52576000816000905550600101610a3a565b5090565b6000819050919050565b610a6981610a56565b82525050565b6000602082019050610a846000830184610a60565b92915050565b7f4e487b7100000000000000000000000000000000000000000000000000000000600052602160045260246000fd5b60038110610aca57610ac9610a8a565b5b50565b6000819050610adb82610ab9565b919050565b6000610aeb82610acd565b9050919050565b610afb81610ae0565b82525050565b6000602082019050610b166000830184610af2565b92915050565b6000604051905090565b600080fd5b600080fd5b610b3981610a56565b8114610b4457600080fd5b50565b600081359050610b5681610b30565b92915050565b600080fd5b6000601f19601f8301169050919050565b7f4e487b7100000000000000000000000000000000000000000000000000000000600052604160045260246000fd5b610baa82610b61565b810181811067ffffffffffffffff82111715610bc957610bc8610b72565b5b80604052505050565b6000610bdc610b1c565b9050610be88282610ba1565b919050565b600067ffffffffffffffff821115610c0857610c07610b72565b5b602082029050602081019050919050565b600080fd5b6000610c31610c2c84610bed565b610bd2565b90508083825260208201905060208402830185811115610c5457610c53610c19565b5b835b81811015610c7d5780610c698882610b47565b845260208401935050602081019050610c56565b5050509392505050565b600082601f830112610c9c57610c9b610b5c565b5b8135610cac848260208601610c1e565b91505092915050565b60008060408385031215610ccc57610ccb610b26565b5b6000610cda85828601610b47565b925050602083013567ffffffffffffffff811115610cfb57610cfa610b2b565b5b610d0785828601610c87565b9150509250929050565b600080fd5b60008083601f840112610d2c57610d2b610b5c565b5b8235905067ffffffffffffffff811115610d4957610d48610d11565b5b602083019150836001820283011115610d6557610d64610c19565b5b9250929050565b60008060208385031215610d8357610d82610b26565b5b600083013567ffffffffffffffff811115610da157610da0610b2b565b5b610dad85828601610d16565b92509250509250929050565b600060208284031215610dcf57610dce610b26565b5b6000610ddd84828501610b47565b91505092915050565b600073ffffffffffffffffffffffffffffffffffffffff82169050919050565b6000610e1182610de6565b9050919050565b610e2181610e06565b82525050565b6000602082019050610e3c6000830184610e18565b92915050565b600080fd5b600067ffffffffffffffff821115610e6257610e61610b72565b5b610e6b82610b61565b9050602081019050919050565b82818337600083830152505050565b6000610e9a610e9584610e47565b610bd2565b905082815260208101848484011115610eb657610eb5610e42565b5b610ec1848285610e78565b509392505050565b600082601f830112610ede57610edd610b5c565b5b8135610eee848260208601610e87565b91505092915050565b600060208284031215610f0d57610f0c610b26565b5b600082013567ffffffffffffffff811115610f2b57610f2a610b2b565b5b610f3784828501610ec9565b91505092915050565b60008115159050919050565b610f5581610f40565b82525050565b600081519050919050565b600082825260208201905092915050565b60005b83811015610f95578082015181840152602081019050610f7a565b60008484015250505050565b6000610fac82610f5b565b610fb68185610f66565b9350610fc6818560208601610f77565b610fcf81610b61565b840191505092915050565b6000604082019050610fef6000830185610f4c565b81810360208301526110018184610fa1565b90509392505050565b600060408201905061101f6000830185610e18565b61102c6020830184610e18565b9392505050565b60006040820190506110486000830185610a60565b6110556020830184610a60565b9392505050565b6000819050919050565b61106f8161105c565b82525050565b600067ffffffffffffffff82169050919050565b61109281611075565b82525050565b600061ffff82169050919050565b6110af81611098565b82525050565b600063ffffffff82169050919050565b6110ce816110b5565b82525050565b600060a0820190506110e96000830188611066565b6110f66020830187611089565b61110360408301866110a6565b61111060608301856110c5565b61111d60808301846110c5565b9695505050505050565b60008151905061113681610b30565b92915050565b60006020828403121561115257611151610b26565b5b600061116084828501611127565b91505092915050565b7f4e487b7100000000000000000000000000000000000000000000000000000000600052603260045260246000fd5b7f4e487b7100000000000000000000000000000000000000000000000000000000600052601160045260246000fd5b60006111d282610a56565b91506111dd83610a56565b92508282039050818111156111f5576111f4611198565b5b92915050565b7f4e487b7100000000000000000000000000000000000000000000000000000000600052601260045260246000fd5b600061123582610a56565b915061124083610a56565b9250826112505761124f6111fb565b5b828206905092915050565b600081905092915050565b50565b600061127660008361125b565b915061128182611266565b600082019050919050565b600061129782611269565b915081905091905056fea26469706673582212202152b69460d0cc3871750d45f1633822334d63f535c792b2b763afdbbdc5a75964736f6c63430008110033",
  "linkReferences": {},
  "deployedLinkReferences": {}
}