{"contracts/Raffle.sol":{"Raffle":{"abi":[{"inputs":[{"internalType":"address","name":"vrfCoordinatorV2","type":"address"},{"internalType":"uint256","name":"_entranceFee","type":"uint256"},{"internalType":"uint64","name":"subscriptionId","type":"uint64"},{"internalType":"bytes32","name":"gasLane","type":"bytes32"},{"internalType":"uint32","name":"callbackGasLimit","type":"uint32"},{"internalType":"uint256","name":"interval","type":"uint256"}],"stateMutability":"nonpayable","type":"constructor"},{"inputs":[{"internalType":"address","name":"have","type":"address"},{"internalType":"address","name":"want","type":"address"}],"name":"OnlyCoordinatorCanFulfill","type":"error"},{"inputs":[],"name":"Raffle_NotEnoughETHEntered","type":"error"},{"inputs":[],"name":"Raffle_NotOpen","type":"error"},{"inputs":[],"name":"Raffle_TransferFailed","type":"error"},{"inputs":[{"internalType":"uint256","name":"numPlayers","type":"uint256"},{"internalType":"uint256","name":"raffleState","type":"uint256"}],"name":"Raffle_UpkeepNotNeeded","type":"error"},{"anonymous":false,"inputs":[{"indexed":true,"internalType":"address","name":"player","type":"address"}],"name":"RaffleEnter","type":"event"},{"anonymous":false,"inputs":[{"indexed":true,"internalType":"uint256","name":"requestId","type":"uint256"}],"name":"RequestedRaffleWinner","type":"event"},{"anonymous":false,"inputs":[{"indexed":true,"internalType":"address","name":"winner","type":"address"}],"name":"WinnerPicked","type":"event"},{"inputs":[{"internalType":"bytes","name":"","type":"bytes"}],"name":"checkUpKeep","outputs":[{"internalType":"bool","name":"upkeepNeeded","type":"bool"},{"internalType":"bytes","name":"","type":"bytes"}],"stateMutability":"view","type":"function"},{"inputs":[],"name":"enterRaffle","outputs":[],"stateMutability":"payable","type":"function"},{"inputs":[],"name":"getEntranceFee","outputs":[{"internalType":"uint256","name":"","type":"uint256"}],"stateMutability":"view","type":"function"},{"inputs":[],"name":"getNumWords","outputs":[{"internalType":"uint256","name":"","type":"uint256"}],"stateMutability":"pure","type":"function"},{"inputs":[{"internalType":"uint256","name":"i","type":"uint256"}],"name":"getPlayers","outputs":[{"internalType":"address","name":"","type":"address"}],"stateMutability":"view","type":"function"},{"inputs":[],"name":"getRaffleState","outputs":[{"internalType":"enum Raffle.RaffleState","name":"","type":"uint8"}],"stateMutability":"view","type":"function"},{"inputs":[],"name":"getRecentWinner","outputs":[{"internalType":"address","name":"","type":"address"}],"stateMutability":"view","type":"function"},{"inputs":[{"internalType":"bytes","name":"","type":"bytes"}],"name":"performUpkeep","outputs":[],"stateMutability":"nonpayable","type":"function"},{"inputs":[{"internalType":"uint256","name":"requestId","type":"uint256"},{"internalType":"uint256[]","name":"randomWords","type":"uint256[]"}],"name":"rawFulfillRandomWords","outputs":[],"stateMutability":"nonpayable","type":"function"}],"devdoc":{"kind":"dev","methods":{"checkUpKeep(bytes)":{"details":"This is the function that the chainlnik keeper nodes call The interval should have passed, at least one player and the subscription needs to be funded."}},"version":1},"evm":{"bytecode":{"linkReferences":{},"object":"6101606040523480156200001257600080fd5b506040516200169f3803806200169f833981810160405281019062000038919062000294565b858073ffffffffffffffffffffffffffffffffffffffff1660808173ffffffffffffffffffffffffffffffffffffffff1681525050508460a081815250508573ffffffffffffffffffffffffffffffffffffffff166101408173ffffffffffffffffffffffffffffffffffffffff16815250508260c081815250508367ffffffffffffffff1660e08167ffffffffffffffff16815250508163ffffffff166101008163ffffffff16815250506000600160146101000a81548160ff021916908360028111156200010d576200010c62000330565b5b0217905550426002819055508061012081815250505050505050506200035f565b600080fd5b600073ffffffffffffffffffffffffffffffffffffffff82169050919050565b6000620001608262000133565b9050919050565b620001728162000153565b81146200017e57600080fd5b50565b600081519050620001928162000167565b92915050565b6000819050919050565b620001ad8162000198565b8114620001b957600080fd5b50565b600081519050620001cd81620001a2565b92915050565b600067ffffffffffffffff82169050919050565b620001f281620001d3565b8114620001fe57600080fd5b50565b6000815190506200021281620001e7565b92915050565b6000819050919050565b6200022d8162000218565b81146200023957600080fd5b50565b6000815190506200024d8162000222565b92915050565b600063ffffffff82169050919050565b6200026e8162000253565b81146200027a57600080fd5b50565b6000815190506200028e8162000263565b92915050565b60008060008060008060c08789031215620002b457620002b36200012e565b5b6000620002c489828a0162000181565b9650506020620002d789828a01620001bc565b9550506040620002ea89828a0162000201565b9450506060620002fd89828a016200023c565b93505060806200031089828a016200027d565b92505060a06200032389828a01620001bc565b9150509295509295509295565b7f4e487b7100000000000000000000000000000000000000000000000000000000600052602160045260246000fd5b60805160a05160c05160e0516101005161012051610140516112d7620003c860003960006105310152600061072c015260006105b10152600061058e0152600061056d015260008181610212015261030f01526000818161024f01526102a301526112d76000f3fe6080604052600436106100865760003560e01c80634585e33b116100595780634585e33b14610114578063460e20491461013d578063473f1ddc1461017a57806353a2c19a146101a55780635e6c102e146101d057610086565b806309bc33a71461008b578063115cbaf5146100b65780631fe543e3146100e15780632cfcc5391461010a575b600080fd5b34801561009757600080fd5b506100a061020e565b6040516100ad9190610a6f565b60405180910390f35b3480156100c257600080fd5b506100cb610236565b6040516100d89190610b01565b60405180910390f35b3480156100ed57600080fd5b5061010860048036038101906101039190610cb5565b61024d565b005b61011261030d565b005b34801561012057600080fd5b5061013b60048036038101906101369190610d6c565b61047c565b005b34801561014957600080fd5b50610164600480360381019061015f9190610db9565b61066a565b6040516101719190610e27565b60405180910390f35b34801561018657600080fd5b5061018f6106b1565b60405161019c9190610e27565b60405180910390f35b3480156101b157600080fd5b506101ba6106db565b6040516101c79190610a6f565b60405180910390f35b3480156101dc57600080fd5b506101f760048036038101906101f29190610ef7565b6106ea565b604051610205929190610fda565b60405180910390f35b60007f0000000000000000000000000000000000000000000000000000000000000000905090565b6000600160149054906101000a900460ff16905090565b7f000000000000000000000000000000000000000000000000000000000000000073ffffffffffffffffffffffffffffffffffffffff163373ffffffffffffffffffffffffffffffffffffffff16146102ff57337f00000000000000000000000000000000000000000000000000000000000000006040517f1cf993f40000000000000000000000000000000000000000000000000000000081526004016102f692919061100a565b60405180910390fd5b6103098282610785565b5050565b7f0000000000000000000000000000000000000000000000000000000000000000341115610367576040517f74938f2700000000000000000000000000000000000000000000000000000000815260040160405180910390fd5b6000600281111561037b5761037a610a8a565b5b600160149054906101000a900460ff16600281111561039d5761039c610a8a565b5b146103d4576040517fd6e19a8d00000000000000000000000000000000000000000000000000000000815260040160405180910390fd5b6000339080600181540180825580915050600190039060005260206000200160009091909190916101000a81548173ffffffffffffffffffffffffffffffffffffffff021916908373ffffffffffffffffffffffffffffffffffffffff1602179055503373ffffffffffffffffffffffffffffffffffffffff167f0805e1d667bddb8a95f0f09880cf94f403fb596ce79928d9f29b74203ba284d460405160405180910390a2565b6000610496604051806020016040528060008152506106ea565b5090508061050357600080549050600160149054906101000a900460ff1660028111156104c6576104c5610a8a565b5b6040517f096b6bce0000000000000000000000000000000000000000000000000000000081526004016104fa929190611033565b60405180910390fd5b60018060146101000a81548160ff0219169083600281111561052857610527610a8a565b5b021790555060007f000000000000000000000000000000000000000000000000000000000000000073ffffffffffffffffffffffffffffffffffffffff16635d3b1d307f00000000000000000000000000000000000000000000000000000000000000007f000000000000000000000000000000000000000000000000000000000000000060037f000000000000000000000000000000000000000000000000000000000000000060016040518663ffffffff1660e01b81526004016105f29594939291906110d4565b6020604051808303816000875af1158015610611573d6000803e3d6000fd5b505050506040513d601f19601f82011682018060405250810190610635919061113c565b9050807fcd6e45c8998311cab7e9d4385596cac867e20a0587194b954fa3a731c93ce78b60405160405180910390a250505050565b600080828154811061067f5761067e611169565b5b9060005260206000200160009054906101000a900473ffffffffffffffffffffffffffffffffffffffff169050919050565b6000600160009054906101000a900473ffffffffffffffffffffffffffffffffffffffff16905090565b6000600163ffffffff16905090565b60006060600080600281111561070357610702610a8a565b5b600160149054906101000a900460ff16600281111561072557610724610a8a565b5b14905060007f00000000000000000000000000000000000000000000000000000000000000006002544261075991906111c7565b1190506000806000805490501190508280156107725750815b801561077b5750805b9450505050915091565b60008080549050826000815181106107a05761079f611169565b5b60200260200101516107b2919061122a565b905060008082815481106107c9576107c8611169565b5b9060005260206000200160009054906101000a900473ffffffffffffffffffffffffffffffffffffffff16905080600160006101000a81548173ffffffffffffffffffffffffffffffffffffffff021916908373ffffffffffffffffffffffffffffffffffffffff16021790555060008173ffffffffffffffffffffffffffffffffffffffff164760405161085d9061128c565b60006040518083038185875af1925050503d806000811461089a576040519150601f19603f3d011682016040523d82523d6000602084013e61089f565b606091505b50509050600067ffffffffffffffff8111156108be576108bd610b72565b5b6040519080825280602002602001820160405280156108ec5781602001602082028036833780820191505090505b50600090805190602001906109029291906109af565b508061093a576040517fba31c4f300000000000000000000000000000000000000000000000000000000815260040160405180910390fd5b8173ffffffffffffffffffffffffffffffffffffffff167f5b690ec4a06fe979403046eaeea5b3ce38524683c3001f662c8b5a829632f7df60405160405180910390a26000600160146101000a81548160ff021916908360028111156109a3576109a2610a8a565b5b02179055505050505050565b828054828255906000526020600020908101928215610a28579160200282015b82811115610a275782518260006101000a81548173ffffffffffffffffffffffffffffffffffffffff021916908373ffffffffffffffffffffffffffffffffffffffff160217905550916020019190600101906109cf565b5b509050610a359190610a39565b5090565b5b80821115610a52576000816000905550600101610a3a565b5090565b6000819050919050565b610a6981610a56565b82525050565b6000602082019050610a846000830184610a60565b92915050565b7f4e487b7100000000000000000000000000000000000000000000000000000000600052602160045260246000fd5b60038110610aca57610ac9610a8a565b5b50565b6000819050610adb82610ab9565b919050565b6000610aeb82610acd565b9050919050565b610afb81610ae0565b82525050565b6000602082019050610b166000830184610af2565b92915050565b6000604051905090565b600080fd5b600080fd5b610b3981610a56565b8114610b4457600080fd5b50565b600081359050610b5681610b30565b92915050565b600080fd5b6000601f19601f8301169050919050565b7f4e487b7100000000000000000000000000000000000000000000000000000000600052604160045260246000fd5b610baa82610b61565b810181811067ffffffffffffffff82111715610bc957610bc8610b72565b5b80604052505050565b6000610bdc610b1c565b9050610be88282610ba1565b919050565b600067ffffffffffffffff821115610c0857610c07610b72565b5b602082029050602081019050919050565b600080fd5b6000610c31610c2c84610bed565b610bd2565b90508083825260208201905060208402830185811115610c5457610c53610c19565b5b835b81811015610c7d5780610c698882610b47565b845260208401935050602081019050610c56565b5050509392505050565b600082601f830112610c9c57610c9b610b5c565b5b8135610cac848260208601610c1e565b91505092915050565b60008060408385031215610ccc57610ccb610b26565b5b6000610cda85828601610b47565b925050602083013567ffffffffffffffff811115610cfb57610cfa610b2b565b5b610d0785828601610c87565b9150509250929050565b600080fd5b60008083601f840112610d2c57610d2b610b5c565b5b8235905067ffffffffffffffff811115610d4957610d48610d11565b5b602083019150836001820283011115610d6557610d64610c19565b5b9250929050565b60008060208385031215610d8357610d82610b26565b5b600083013567ffffffffffffffff811115610da157610da0610b2b565b5b610dad85828601610d16565b92509250509250929050565b600060208284031215610dcf57610dce610b26565b5b6000610ddd84828501610b47565b91505092915050565b600073ffffffffffffffffffffffffffffffffffffffff82169050919050565b6000610e1182610de6565b9050919050565b610e2181610e06565b82525050565b6000602082019050610e3c6000830184610e18565b92915050565b600080fd5b600067ffffffffffffffff821115610e6257610e61610b72565b5b610e6b82610b61565b9050602081019050919050565b82818337600083830152505050565b6000610e9a610e9584610e47565b610bd2565b905082815260208101848484011115610eb657610eb5610e42565b5b610ec1848285610e78565b509392505050565b600082601f830112610ede57610edd610b5c565b5b8135610eee848260208601610e87565b91505092915050565b600060208284031215610f0d57610f0c610b26565b5b600082013567ffffffffffffffff811115610f2b57610f2a610b2b565b5b610f3784828501610ec9565b91505092915050565b60008115159050919050565b610f5581610f40565b82525050565b600081519050919050565b600082825260208201905092915050565b60005b83811015610f95578082015181840152602081019050610f7a565b60008484015250505050565b6000610fac82610f5b565b610fb68185610f66565b9350610fc6818560208601610f77565b610fcf81610b61565b840191505092915050565b6000604082019050610fef6000830185610f4c565b81810360208301526110018184610fa1565b90509392505050565b600060408201905061101f6000830185610e18565b61102c6020830184610e18565b9392505050565b60006040820190506110486000830185610a60565b6110556020830184610a60565b9392505050565b6000819050919050565b61106f8161105c565b82525050565b600067ffffffffffffffff82169050919050565b61109281611075565b82525050565b600061ffff82169050919050565b6110af81611098565b82525050565b600063ffffffff82169050919050565b6110ce816110b5565b82525050565b600060a0820190506110e96000830188611066565b6110f66020830187611089565b61110360408301866110a6565b61111060608301856110c5565b61111d60808301846110c5565b9695505050505050565b60008151905061113681610b30565b92915050565b60006020828403121561115257611151610b26565b5b600061116084828501611127565b91505092915050565b7f4e487b7100000000000000000000000000000000000000000000000000000000600052603260045260246000fd5b7f4e487b7100000000000000000000000000000000000000000000000000000000600052601160045260246000fd5b60006111d282610a56565b91506111dd83610a56565b92508282039050818111156111f5576111f4611198565b5b92915050565b7f4e487b7100000000000000000000000000000000000000000000000000000000600052601260045260246000fd5b600061123582610a56565b915061124083610a56565b9250826112505761124f6111fb565b5b828206905092915050565b600081905092915050565b50565b600061127660008361125b565b915061128182611266565b600082019050919050565b600061129782611269565b915081905091905056fea26469706673582212202152b69460d0cc3871750d45f1633822334d63f535c792b2b763afdbbdc5a75964736f6c63430008110033","opcodes":"PUSH2 0x160 PUSH1 0x40 MSTORE CALLVALUE DUP1 ISZERO PUSH3 0x12 JUMPI PUSH1 0x0 DUP1 REVERT JUMPDEST POP PUSH1 0x40 MLOAD PUSH3 0x169F CODESIZE SUB DUP1 PUSH3 0x169F DUP4 CODECOPY DUP2 DUP2 ADD PUSH1 0x40 MSTORE DUP2 ADD SWAP1 PUSH3 0x38 SWAP2 SWAP1 PUSH3 0x294 JUMP JUMPDEST DUP6 DUP1 PUSH20 0xFFFFFFFFFFFFFFFFFFFFFFFFFFFFFFFFFFFFFFFF AND PUSH1 0x80 DUP2 PUSH20 0xFFFFFFFFFFFFFFFFFFFFFFFFFFFFFFFFFFFFFFFF AND DUP2 MSTORE POP POP POP DUP5 PUSH1 0xA0 DUP2 DUP2 MSTORE POP POP DUP6 PUSH20 0xFFFFFFFFFFFFFFFFFFFFFFFFFFFFFFFFFFFFFFFF AND PUSH2 0x140 DUP2 PUSH20 0xFFFFFFFFFFFFFFFFFFFFFFFFFFFFFFFFFFFFFFFF AND DUP2 MSTORE POP POP DUP3 PUSH1 0xC0 DUP2 DUP2 MSTORE POP POP DUP4 PUSH8 0xFFFFFFFFFFFFFFFF AND PUSH1 0xE0 DUP2 PUSH8 0xFFFFFFFFFFFFFFFF AND DUP2 MSTORE POP POP DUP2 PUSH4 0xFFFFFFFF AND PUSH2 0x100 DUP2 PUSH4 0xFFFFFFFF AND DUP2 MSTORE POP POP PUSH1 0x0 PUSH1 0x1 PUSH1 0x14 PUSH2 0x100 EXP DUP2 SLOAD DUP2 PUSH1 0xFF MUL NOT AND SWAP1 DUP4 PUSH1 0x2 DUP2 GT ISZERO PUSH3 0x10D JUMPI PUSH3 0x10C PUSH3 0x330 JUMP JUMPDEST JUMPDEST MUL OR SWAP1 SSTORE POP TIMESTAMP PUSH1 0x2 DUP2 SWAP1 SSTORE POP DUP1 PUSH2 0x120 DUP2 DUP2 MSTORE POP POP POP POP POP POP POP POP PUSH3 0x35F JUMP JUMPDEST PUSH1 0x0 DUP1 REVERT JUMPDEST PUSH1 0x0 PUSH20 0xFFFFFFFFFFFFFFFFFFFFFFFFFFFFFFFFFFFFFFFF DUP3 AND SWAP1 POP SWAP2 SWAP1 POP JUMP JUMPDEST PUSH1 0x0 PUSH3 0x160 DUP3 PUSH3 0x133 JUMP JUMPDEST SWAP1 POP SWAP2 SWAP1 POP JUMP JUMPDEST PUSH3 0x172 DUP2 PUSH3 0x153 JUMP JUMPDEST DUP2 EQ PUSH3 0x17E JUMPI PUSH1 0x0 DUP1 REVERT JUMPDEST POP JUMP JUMPDEST PUSH1 0x0 DUP2 MLOAD SWAP1 POP PUSH3 0x192 DUP2 PUSH3 0x167 JUMP JUMPDEST SWAP3 SWAP2 POP POP JUMP JUMPDEST PUSH1 0x0 DUP2 SWAP1 POP SWAP2 SWAP1 POP JUMP JUMPDEST PUSH3 0x1AD DUP2 PUSH3 0x198 JUMP JUMPDEST DUP2 EQ PUSH3 0x1B9 JUMPI PUSH1 0x0 DUP1 REVERT JUMPDEST POP JUMP JUMPDEST PUSH1 0x0 DUP2 MLOAD SWAP1 POP PUSH3 0x1CD DUP2 PUSH3 0x1A2 JUMP JUMPDEST SWAP3 SWAP2 POP POP JUMP JUMPDEST PUSH1 0x0 PUSH8 0xFFFFFFFFFFFFFFFF DUP3 AND SWAP1 POP SWAP2 SWAP1 POP JUMP JUMPDEST PUSH3 0x1F2 DUP2 PUSH3 0x1D3 JUMP JUMPDEST DUP2 EQ PUSH3 0x1FE JUMPI PUSH1 0x0 DUP1 REVERT JUMPDEST POP JUMP JUMPDEST PUSH1 0x0 DUP2 MLOAD SWAP1 POP PUSH3 0x212 DUP2 PUSH3 0x1E7 JUMP JUMPDEST SWAP3 SWAP2 POP POP JUMP JUMPDEST PUSH1 0x0 DUP2 SWAP1 POP SWAP2 SWAP1 POP JUMP JUMPDEST PUSH3 0x22D DUP2 PUSH3 0x218 JUMP JUMPDEST DUP2 EQ PUSH3 0x239 JUMPI PUSH1 0x0 DUP1 REVERT JUMPDEST POP JUMP JUMPDEST PUSH1 0x0 DUP2 MLOAD SWAP1 POP PUSH3 0x24D DUP2 PUSH3 0x222 JUMP JUMPDEST SWAP3 SWAP2 POP POP JUMP JUMPDEST PUSH1 0x0 PUSH4 0xFFFFFFFF DUP3 AND SWAP1 POP SWAP2 SWAP1 POP JUMP JUMPDEST PUSH3 0x26E DUP2 PUSH3 0x253 JUMP JUMPDEST DUP2 EQ PUSH3 0x27A JUMPI PUSH1 0x0 DUP1 REVERT JUMPDEST POP JUMP JUMPDEST PUSH1 0x0 DUP2 MLOAD SWAP1 POP PUSH3 0x28E DUP2 PUSH3 0x263 JUMP JUMPDEST SWAP3 SWAP2 POP POP JUMP JUMPDEST PUSH1 0x0 DUP1 PUSH1 0x0 DUP1 PUSH1 0x0 DUP1 PUSH1 0xC0 DUP8 DUP10 SUB SLT ISZERO PUSH3 0x2B4 JUMPI PUSH3 0x2B3 PUSH3 0x12E JUMP JUMPDEST JUMPDEST PUSH1 0x0 PUSH3 0x2C4 DUP10 DUP3 DUP11 ADD PUSH3 0x181 JUMP JUMPDEST SWAP7 POP POP PUSH1 0x20 PUSH3 0x2D7 DUP10 DUP3 DUP11 ADD PUSH3 0x1BC JUMP JUMPDEST SWAP6 POP POP PUSH1 0x40 PUSH3 0x2EA DUP10 DUP3 DUP11 ADD PUSH3 0x201 JUMP JUMPDEST SWAP5 POP POP PUSH1 0x60 PUSH3 0x2FD DUP10 DUP3 DUP11 ADD PUSH3 0x23C JUMP JUMPDEST SWAP4 POP POP PUSH1 0x80 PUSH3 0x310 DUP10 DUP3 DUP11 ADD PUSH3 0x27D JUMP JUMPDEST SWAP3 POP POP PUSH1 0xA0 PUSH3 0x323 DUP10 DUP3 DUP11 ADD PUSH3 0x1BC JUMP JUMPDEST SWAP2 POP POP SWAP3 SWAP6 POP SWAP3 SWAP6 POP SWAP3 SWAP6 JUMP JUMPDEST PUSH32 0x4E487B7100000000000000000000000000000000000000000000000000000000 PUSH1 0x0 MSTORE PUSH1 0x21 PUSH1 0x4 MSTORE PUSH1 0x24 PUSH1 0x0 REVERT JUMPDEST PUSH1 0x80 MLOAD PUSH1 0xA0 MLOAD PUSH1 0xC0 MLOAD PUSH1 0xE0 MLOAD PUSH2 0x100 MLOAD PUSH2 0x120 MLOAD PUSH2 0x140 MLOAD PUSH2 0x12D7 PUSH3 0x3C8 PUSH1 0x0 CODECOPY PUSH1 0x0 PUSH2 0x531 ADD MSTORE PUSH1 0x0 PUSH2 0x72C ADD MSTORE PUSH1 0x0 PUSH2 0x5B1 ADD MSTORE PUSH1 0x0 PUSH2 0x58E ADD MSTORE PUSH1 0x0 PUSH2 0x56D ADD MSTORE PUSH1 0x0 DUP2 DUP2 PUSH2 0x212 ADD MSTORE PUSH2 0x30F ADD MSTORE PUSH1 0x0 DUP2 DUP2 PUSH2 0x24F ADD MSTORE PUSH2 0x2A3 ADD MSTORE PUSH2 0x12D7 PUSH1 0x0 RETURN INVALID PUSH1 0x80 PUSH1 0x40 MSTORE PUSH1 0x4 CALLDATASIZE LT PUSH2 0x86 JUMPI PUSH1 0x0 CALLDATALOAD PUSH1 0xE0 SHR DUP1 PUSH4 0x4585E33B GT PUSH2 0x59 JUMPI DUP1 PUSH4 0x4585E33B EQ PUSH2 0x114 JUMPI DUP1 PUSH4 0x460E2049 EQ PUSH2 0x13D JUMPI DUP1 PUSH4 0x473F1DDC EQ PUSH2 0x17A JUMPI DUP1 PUSH4 0x53A2C19A EQ PUSH2 0x1A5 JUMPI DUP1 PUSH4 0x5E6C102E EQ PUSH2 0x1D0 JUMPI PUSH2 0x86 JUMP JUMPDEST DUP1 PUSH4 0x9BC33A7 EQ PUSH2 0x8B JUMPI DUP1 PUSH4 0x115CBAF5 EQ PUSH2 0xB6 JUMPI DUP1 PUSH4 0x1FE543E3 EQ PUSH2 0xE1 JUMPI DUP1 PUSH4 0x2CFCC539 EQ PUSH2 0x10A JUMPI JUMPDEST PUSH1 0x0 DUP1 REVERT JUMPDEST CALLVALUE DUP1 ISZERO PUSH2 0x97 JUMPI PUSH1 0x0 DUP1 REVERT JUMPDEST POP PUSH2 0xA0 PUSH2 0x20E JUMP JUMPDEST PUSH1 0x40 MLOAD PUSH2 0xAD SWAP2 SWAP1 PUSH2 0xA6F JUMP JUMPDEST PUSH1 0x40 MLOAD DUP1 SWAP2 SUB SWAP1 RETURN JUMPDEST CALLVALUE DUP1 ISZERO PUSH2 0xC2 JUMPI PUSH1 0x0 DUP1 REVERT JUMPDEST POP PUSH2 0xCB PUSH2 0x236 JUMP JUMPDEST PUSH1 0x40 MLOAD PUSH2 0xD8 SWAP2 SWAP1 PUSH2 0xB01 JUMP JUMPDEST PUSH1 0x40 MLOAD DUP1 SWAP2 SUB SWAP1 RETURN JUMPDEST CALLVALUE DUP1 ISZERO PUSH2 0xED JUMPI PUSH1 0x0 DUP1 REVERT JUMPDEST POP PUSH2 0x108 PUSH1 0x4 DUP1 CALLDATASIZE SUB DUP2 ADD SWAP1 PUSH2 0x103 SWAP2 SWAP1 PUSH2 0xCB5 JUMP JUMPDEST PUSH2 0x24D JUMP JUMPDEST STOP JUMPDEST PUSH2 0x112 PUSH2 0x30D JUMP JUMPDEST STOP JUMPDEST CALLVALUE DUP1 ISZERO PUSH2 0x120 JUMPI PUSH1 0x0 DUP1 REVERT JUMPDEST POP PUSH2 0x13B PUSH1 0x4 DUP1 CALLDATASIZE SUB DUP2 ADD SWAP1 PUSH2 0x136 SWAP2 SWAP1 PUSH2 0xD6C JUMP JUMPDEST PUSH2 0x47C JUMP JUMPDEST STOP JUMPDEST CALLVALUE DUP1 ISZERO PUSH2 0x149 JUMPI PUSH1 0x0 DUP1 REVERT JUMPDEST POP PUSH2 0x164 PUSH1 0x4 DUP1 CALLDATASIZE SUB DUP2 ADD SWAP1 PUSH2 0x15F SWAP2 SWAP1 PUSH2 0xDB9 JUMP JUMPDEST PUSH2 0x66A JUMP JUMPDEST PUSH1 0x40 MLOAD PUSH2 0x171 SWAP2 SWAP1 PUSH2 0xE27 JUMP JUMPDEST PUSH1 0x40 MLOAD DUP1 SWAP2 SUB SWAP1 RETURN JUMPDEST CALLVALUE DUP1 ISZERO PUSH2 0x186 JUMPI PUSH1 0x0 DUP1 REVERT JUMPDEST POP PUSH2 0x18F PUSH2 0x6B1 JUMP JUMPDEST PUSH1 0x40 MLOAD PUSH2 0x19C SWAP2 SWAP1 PUSH2 0xE27 JUMP JUMPDEST PUSH1 0x40 MLOAD DUP1 SWAP2 SUB SWAP1 RETURN JUMPDEST CALLVALUE DUP1 ISZERO PUSH2 0x1B1 JUMPI PUSH1 0x0 DUP1 REVERT JUMPDEST POP PUSH2 0x1BA PUSH2 0x6DB JUMP JUMPDEST PUSH1 0x40 MLOAD PUSH2 0x1C7 SWAP2 SWAP1 PUSH2 0xA6F JUMP JUMPDEST PUSH1 0x40 MLOAD DUP1 SWAP2 SUB SWAP1 RETURN JUMPDEST CALLVALUE DUP1 ISZERO PUSH2 0x1DC JUMPI PUSH1 0x0 DUP1 REVERT JUMPDEST POP PUSH2 0x1F7 PUSH1 0x4 DUP1 CALLDATASIZE SUB DUP2 ADD SWAP1 PUSH2 0x1F2 SWAP2 SWAP1 PUSH2 0xEF7 JUMP JUMPDEST PUSH2 0x6EA JUMP JUMPDEST PUSH1 0x40 MLOAD PUSH2 0x205 SWAP3 SWAP2 SWAP1 PUSH2 0xFDA JUMP JUMPDEST PUSH1 0x40 MLOAD DUP1 SWAP2 SUB SWAP1 RETURN JUMPDEST PUSH1 0x0 PUSH32 0x0 SWAP1 POP SWAP1 JUMP JUMPDEST PUSH1 0x0 PUSH1 0x1 PUSH1 0x14 SWAP1 SLOAD SWAP1 PUSH2 0x100 EXP SWAP1 DIV PUSH1 0xFF AND SWAP1 POP SWAP1 JUMP JUMPDEST PUSH32 0x0 PUSH20 0xFFFFFFFFFFFFFFFFFFFFFFFFFFFFFFFFFFFFFFFF AND CALLER PUSH20 0xFFFFFFFFFFFFFFFFFFFFFFFFFFFFFFFFFFFFFFFF AND EQ PUSH2 0x2FF JUMPI CALLER PUSH32 0x0 PUSH1 0x40 MLOAD PUSH32 0x1CF993F400000000000000000000000000000000000000000000000000000000 DUP2 MSTORE PUSH1 0x4 ADD PUSH2 0x2F6 SWAP3 SWAP2 SWAP1 PUSH2 0x100A JUMP JUMPDEST PUSH1 0x40 MLOAD DUP1 SWAP2 SUB SWAP1 REVERT JUMPDEST PUSH2 0x309 DUP3 DUP3 PUSH2 0x785 JUMP JUMPDEST POP POP JUMP JUMPDEST PUSH32 0x0 CALLVALUE GT ISZERO PUSH2 0x367 JUMPI PUSH1 0x40 MLOAD PUSH32 0x74938F2700000000000000000000000000000000000000000000000000000000 DUP2 MSTORE PUSH1 0x4 ADD PUSH1 0x40 MLOAD DUP1 SWAP2 SUB SWAP1 REVERT JUMPDEST PUSH1 0x0 PUSH1 0x2 DUP2 GT ISZERO PUSH2 0x37B JUMPI PUSH2 0x37A PUSH2 0xA8A JUMP JUMPDEST JUMPDEST PUSH1 0x1 PUSH1 0x14 SWAP1 SLOAD SWAP1 PUSH2 0x100 EXP SWAP1 DIV PUSH1 0xFF AND PUSH1 0x2 DUP2 GT ISZERO PUSH2 0x39D JUMPI PUSH2 0x39C PUSH2 0xA8A JUMP JUMPDEST JUMPDEST EQ PUSH2 0x3D4 JUMPI PUSH1 0x40 MLOAD PUSH32 0xD6E19A8D00000000000000000000000000000000000000000000000000000000 DUP2 MSTORE PUSH1 0x4 ADD PUSH1 0x40 MLOAD DUP1 SWAP2 SUB SWAP1 REVERT JUMPDEST PUSH1 0x0 CALLER SWAP1 DUP1 PUSH1 0x1 DUP2 SLOAD ADD DUP1 DUP3 SSTORE DUP1 SWAP2 POP POP PUSH1 0x1 SWAP1 SUB SWAP1 PUSH1 0x0 MSTORE PUSH1 0x20 PUSH1 0x0 KECCAK256 ADD PUSH1 0x0 SWAP1 SWAP2 SWAP1 SWAP2 SWAP1 SWAP2 PUSH2 0x100 EXP DUP2 SLOAD DUP2 PUSH20 0xFFFFFFFFFFFFFFFFFFFFFFFFFFFFFFFFFFFFFFFF MUL NOT AND SWAP1 DUP4 PUSH20 0xFFFFFFFFFFFFFFFFFFFFFFFFFFFFFFFFFFFFFFFF AND MUL OR SWAP1 SSTORE POP CALLER PUSH20 0xFFFFFFFFFFFFFFFFFFFFFFFFFFFFFFFFFFFFFFFF AND PUSH32 0x805E1D667BDDB8A95F0F09880CF94F403FB596CE79928D9F29B74203BA284D4 PUSH1 0x40 MLOAD PUSH1 0x40 MLOAD DUP1 SWAP2 SUB SWAP1 LOG2 JUMP JUMPDEST PUSH1 0x0 PUSH2 0x496 PUSH1 0x40 MLOAD DUP1 PUSH1 0x20 ADD PUSH1 0x40 MSTORE DUP1 PUSH1 0x0 DUP2 MSTORE POP PUSH2 0x6EA JUMP JUMPDEST POP SWAP1 POP DUP1 PUSH2 0x503 JUMPI PUSH1 0x0 DUP1 SLOAD SWAP1 POP PUSH1 0x1 PUSH1 0x14 SWAP1 SLOAD SWAP1 PUSH2 0x100 EXP SWAP1 DIV PUSH1 0xFF AND PUSH1 0x2 DUP2 GT ISZERO PUSH2 0x4C6 JUMPI PUSH2 0x4C5 PUSH2 0xA8A JUMP JUMPDEST JUMPDEST PUSH1 0x40 MLOAD PUSH32 0x96B6BCE00000000000000000000000000000000000000000000000000000000 DUP2 MSTORE PUSH1 0x4 ADD PUSH2 0x4FA SWAP3 SWAP2 SWAP1 PUSH2 0x1033 JUMP JUMPDEST PUSH1 0x40 MLOAD DUP1 SWAP2 SUB SWAP1 REVERT JUMPDEST PUSH1 0x1 DUP1 PUSH1 0x14 PUSH2 0x100 EXP DUP2 SLOAD DUP2 PUSH1 0xFF MUL NOT AND SWAP1 DUP4 PUSH1 0x2 DUP2 GT ISZERO PUSH2 0x528 JUMPI PUSH2 0x527 PUSH2 0xA8A JUMP JUMPDEST JUMPDEST MUL OR SWAP1 SSTORE POP PUSH1 0x0 PUSH32 0x0 PUSH20 0xFFFFFFFFFFFFFFFFFFFFFFFFFFFFFFFFFFFFFFFF AND PUSH4 0x5D3B1D30 PUSH32 0x0 PUSH32 0x0 PUSH1 0x3 PUSH32 0x0 PUSH1 0x1 PUSH1 0x40 MLOAD DUP7 PUSH4 0xFFFFFFFF AND PUSH1 0xE0 SHL DUP2 MSTORE PUSH1 0x4 ADD PUSH2 0x5F2 SWAP6 SWAP5 SWAP4 SWAP3 SWAP2 SWAP1 PUSH2 0x10D4 JUMP JUMPDEST PUSH1 0x20 PUSH1 0x40 MLOAD DUP1 DUP4 SUB DUP2 PUSH1 0x0 DUP8 GAS CALL ISZERO DUP1 ISZERO PUSH2 0x611 JUMPI RETURNDATASIZE PUSH1 0x0 DUP1 RETURNDATACOPY RETURNDATASIZE PUSH1 0x0 REVERT JUMPDEST POP POP POP POP PUSH1 0x40 MLOAD RETURNDATASIZE PUSH1 0x1F NOT PUSH1 0x1F DUP3 ADD AND DUP3 ADD DUP1 PUSH1 0x40 MSTORE POP DUP2 ADD SWAP1 PUSH2 0x635 SWAP2 SWAP1 PUSH2 0x113C JUMP JUMPDEST SWAP1 POP DUP1 PUSH32 0xCD6E45C8998311CAB7E9D4385596CAC867E20A0587194B954FA3A731C93CE78B PUSH1 0x40 MLOAD PUSH1 0x40 MLOAD DUP1 SWAP2 SUB SWAP1 LOG2 POP POP POP POP JUMP JUMPDEST PUSH1 0x0 DUP1 DUP3 DUP2 SLOAD DUP2 LT PUSH2 0x67F JUMPI PUSH2 0x67E PUSH2 0x1169 JUMP JUMPDEST JUMPDEST SWAP1 PUSH1 0x0 MSTORE PUSH1 0x20 PUSH1 0x0 KECCAK256 ADD PUSH1 0x0 SWAP1 SLOAD SWAP1 PUSH2 0x100 EXP SWAP1 DIV PUSH20 0xFFFFFFFFFFFFFFFFFFFFFFFFFFFFFFFFFFFFFFFF AND SWAP1 POP SWAP2 SWAP1 POP JUMP JUMPDEST PUSH1 0x0 PUSH1 0x1 PUSH1 0x0 SWAP1 SLOAD SWAP1 PUSH2 0x100 EXP SWAP1 DIV PUSH20 0xFFFFFFFFFFFFFFFFFFFFFFFFFFFFFFFFFFFFFFFF AND SWAP1 POP SWAP1 JUMP JUMPDEST PUSH1 0x0 PUSH1 0x1 PUSH4 0xFFFFFFFF AND SWAP1 POP SWAP1 JUMP JUMPDEST PUSH1 0x0 PUSH1 0x60 PUSH1 0x0 DUP1 PUSH1 0x2 DUP2 GT ISZERO PUSH2 0x703 JUMPI PUSH2 0x702 PUSH2 0xA8A JUMP JUMPDEST JUMPDEST PUSH1 0x1 PUSH1 0x14 SWAP1 SLOAD SWAP1 PUSH2 0x100 EXP SWAP1 DIV PUSH1 0xFF AND PUSH1 0x2 DUP2 GT ISZERO PUSH2 0x725 JUMPI PUSH2 0x724 PUSH2 0xA8A JUMP JUMPDEST JUMPDEST EQ SWAP1 POP PUSH1 0x0 PUSH32 0x0 PUSH1 0x2 SLOAD TIMESTAMP PUSH2 0x759 SWAP2 SWAP1 PUSH2 0x11C7 JUMP JUMPDEST GT SWAP1 POP PUSH1 0x0 DUP1 PUSH1 0x0 DUP1 SLOAD SWAP1 POP GT SWAP1 POP DUP3 DUP1 ISZERO PUSH2 0x772 JUMPI POP DUP2 JUMPDEST DUP1 ISZERO PUSH2 0x77B JUMPI POP DUP1 JUMPDEST SWAP5 POP POP POP POP SWAP2 POP SWAP2 JUMP JUMPDEST PUSH1 0x0 DUP1 DUP1 SLOAD SWAP1 POP DUP3 PUSH1 0x0 DUP2 MLOAD DUP2 LT PUSH2 0x7A0 JUMPI PUSH2 0x79F PUSH2 0x1169 JUMP JUMPDEST JUMPDEST PUSH1 0x20 MUL PUSH1 0x20 ADD ADD MLOAD PUSH2 0x7B2 SWAP2 SWAP1 PUSH2 0x122A JUMP JUMPDEST SWAP1 POP PUSH1 0x0 DUP1 DUP3 DUP2 SLOAD DUP2 LT PUSH2 0x7C9 JUMPI PUSH2 0x7C8 PUSH2 0x1169 JUMP JUMPDEST JUMPDEST SWAP1 PUSH1 0x0 MSTORE PUSH1 0x20 PUSH1 0x0 KECCAK256 ADD PUSH1 0x0 SWAP1 SLOAD SWAP1 PUSH2 0x100 EXP SWAP1 DIV PUSH20 0xFFFFFFFFFFFFFFFFFFFFFFFFFFFFFFFFFFFFFFFF AND SWAP1 POP DUP1 PUSH1 0x1 PUSH1 0x0 PUSH2 0x100 EXP DUP2 SLOAD DUP2 PUSH20 0xFFFFFFFFFFFFFFFFFFFFFFFFFFFFFFFFFFFFFFFF MUL NOT AND SWAP1 DUP4 PUSH20 0xFFFFFFFFFFFFFFFFFFFFFFFFFFFFFFFFFFFFFFFF AND MUL OR SWAP1 SSTORE POP PUSH1 0x0 DUP2 PUSH20 0xFFFFFFFFFFFFFFFFFFFFFFFFFFFFFFFFFFFFFFFF AND SELFBALANCE PUSH1 0x40 MLOAD PUSH2 0x85D SWAP1 PUSH2 0x128C JUMP JUMPDEST PUSH1 0x0 PUSH1 0x40 MLOAD DUP1 DUP4 SUB DUP2 DUP6 DUP8 GAS CALL SWAP3 POP POP POP RETURNDATASIZE DUP1 PUSH1 0x0 DUP2 EQ PUSH2 0x89A JUMPI PUSH1 0x40 MLOAD SWAP2 POP PUSH1 0x1F NOT PUSH1 0x3F RETURNDATASIZE ADD AND DUP3 ADD PUSH1 0x40 MSTORE RETURNDATASIZE DUP3 MSTORE RETURNDATASIZE PUSH1 0x0 PUSH1 0x20 DUP5 ADD RETURNDATACOPY PUSH2 0x89F JUMP JUMPDEST PUSH1 0x60 SWAP2 POP JUMPDEST POP POP SWAP1 POP PUSH1 0x0 PUSH8 0xFFFFFFFFFFFFFFFF DUP2 GT ISZERO PUSH2 0x8BE JUMPI PUSH2 0x8BD PUSH2 0xB72 JUMP JUMPDEST JUMPDEST PUSH1 0x40 MLOAD SWAP1 DUP1 DUP3 MSTORE DUP1 PUSH1 0x20 MUL PUSH1 0x20 ADD DUP3 ADD PUSH1 0x40 MSTORE DUP1 ISZERO PUSH2 0x8EC JUMPI DUP2 PUSH1 0x20 ADD PUSH1 0x20 DUP3 MUL DUP1 CALLDATASIZE DUP4 CALLDATACOPY DUP1 DUP3 ADD SWAP2 POP POP SWAP1 POP JUMPDEST POP PUSH1 0x0 SWAP1 DUP1 MLOAD SWAP1 PUSH1 0x20 ADD SWAP1 PUSH2 0x902 SWAP3 SWAP2 SWAP1 PUSH2 0x9AF JUMP JUMPDEST POP DUP1 PUSH2 0x93A JUMPI PUSH1 0x40 MLOAD PUSH32 0xBA31C4F300000000000000000000000000000000000000000000000000000000 DUP2 MSTORE PUSH1 0x4 ADD PUSH1 0x40 MLOAD DUP1 SWAP2 SUB SWAP1 REVERT JUMPDEST DUP2 PUSH20 0xFFFFFFFFFFFFFFFFFFFFFFFFFFFFFFFFFFFFFFFF AND PUSH32 0x5B690EC4A06FE979403046EAEEA5B3CE38524683C3001F662C8B5A829632F7DF PUSH1 0x40 MLOAD PUSH1 0x40 MLOAD DUP1 SWAP2 SUB SWAP1 LOG2 PUSH1 0x0 PUSH1 0x1 PUSH1 0x14 PUSH2 0x100 EXP DUP2 SLOAD DUP2 PUSH1 0xFF MUL NOT AND SWAP1 DUP4 PUSH1 0x2 DUP2 GT ISZERO PUSH2 0x9A3 JUMPI PUSH2 0x9A2 PUSH2 0xA8A JUMP JUMPDEST JUMPDEST MUL OR SWAP1 SSTORE POP POP POP POP POP POP JUMP JUMPDEST DUP3 DUP1 SLOAD DUP3 DUP3 SSTORE SWAP1 PUSH1 0x0 MSTORE PUSH1 0x20 PUSH1 0x0 KECCAK256 SWAP1 DUP2 ADD SWAP3 DUP3 ISZERO PUSH2 0xA28 JUMPI SWAP2 PUSH1 0x20 MUL DUP3 ADD JUMPDEST DUP3 DUP2 GT ISZERO PUSH2 0xA27 JUMPI DUP3 MLOAD DUP3 PUSH1 0x0 PUSH2 0x100 EXP DUP2 SLOAD DUP2 PUSH20 0xFFFFFFFFFFFFFFFFFFFFFFFFFFFFFFFFFFFFFFFF MUL NOT AND SWAP1 DUP4 PUSH20 0xFFFFFFFFFFFFFFFFFFFFFFFFFFFFFFFFFFFFFFFF AND MUL OR SWAP1 SSTORE POP SWAP2 PUSH1 0x20 ADD SWAP2 SWAP1 PUSH1 0x1 ADD SWAP1 PUSH2 0x9CF JUMP JUMPDEST JUMPDEST POP SWAP1 POP PUSH2 0xA35 SWAP2 SWAP1 PUSH2 0xA39 JUMP JUMPDEST POP SWAP1 JUMP JUMPDEST JUMPDEST DUP1 DUP3 GT ISZERO PUSH2 0xA52 JUMPI PUSH1 0x0 DUP2 PUSH1 0x0 SWAP1 SSTORE POP PUSH1 0x1 ADD PUSH2 0xA3A JUMP JUMPDEST POP SWAP1 JUMP JUMPDEST PUSH1 0x0 DUP2 SWAP1 POP SWAP2 SWAP1 POP JUMP JUMPDEST PUSH2 0xA69 DUP2 PUSH2 0xA56 JUMP JUMPDEST DUP3 MSTORE POP POP JUMP JUMPDEST PUSH1 0x0 PUSH1 0x20 DUP3 ADD SWAP1 POP PUSH2 0xA84 PUSH1 0x0 DUP4 ADD DUP5 PUSH2 0xA60 JUMP JUMPDEST SWAP3 SWAP2 POP POP JUMP JUMPDEST PUSH32 0x4E487B7100000000000000000000000000000000000000000000000000000000 PUSH1 0x0 MSTORE PUSH1 0x21 PUSH1 0x4 MSTORE PUSH1 0x24 PUSH1 0x0 REVERT JUMPDEST PUSH1 0x3 DUP2 LT PUSH2 0xACA JUMPI PUSH2 0xAC9 PUSH2 0xA8A JUMP JUMPDEST JUMPDEST POP JUMP JUMPDEST PUSH1 0x0 DUP2 SWAP1 POP PUSH2 0xADB DUP3 PUSH2 0xAB9 JUMP JUMPDEST SWAP2 SWAP1 POP JUMP JUMPDEST PUSH1 0x0 PUSH2 0xAEB DUP3 PUSH2 0xACD JUMP JUMPDEST SWAP1 POP SWAP2 SWAP1 POP JUMP JUMPDEST PUSH2 0xAFB DUP2 PUSH2 0xAE0 JUMP JUMPDEST DUP3 MSTORE POP POP JUMP JUMPDEST PUSH1 0x0 PUSH1 0x20 DUP3 ADD SWAP1 POP PUSH2 0xB16 PUSH1 0x0 DUP4 ADD DUP5 PUSH2 0xAF2 JUMP JUMPDEST SWAP3 SWAP2 POP POP JUMP JUMPDEST PUSH1 0x0 PUSH1 0x40 MLOAD SWAP1 POP SWAP1 JUMP JUMPDEST PUSH1 0x0 DUP1 REVERT JUMPDEST PUSH1 0x0 DUP1 REVERT JUMPDEST PUSH2 0xB39 DUP2 PUSH2 0xA56 JUMP JUMPDEST DUP2 EQ PUSH2 0xB44 JUMPI PUSH1 0x0 DUP1 REVERT JUMPDEST POP JUMP JUMPDEST PUSH1 0x0 DUP2 CALLDATALOAD SWAP1 POP PUSH2 0xB56 DUP2 PUSH2 0xB30 JUMP JUMPDEST SWAP3 SWAP2 POP POP JUMP JUMPDEST PUSH1 0x0 DUP1 REVERT JUMPDEST PUSH1 0x0 PUSH1 0x1F NOT PUSH1 0x1F DUP4 ADD AND SWAP1 POP SWAP2 SWAP1 POP JUMP JUMPDEST PUSH32 0x4E487B7100000000000000000000000000000000000000000000000000000000 PUSH1 0x0 MSTORE PUSH1 0x41 PUSH1 0x4 MSTORE PUSH1 0x24 PUSH1 0x0 REVERT JUMPDEST PUSH2 0xBAA DUP3 PUSH2 0xB61 JUMP JUMPDEST DUP2 ADD DUP2 DUP2 LT PUSH8 0xFFFFFFFFFFFFFFFF DUP3 GT OR ISZERO PUSH2 0xBC9 JUMPI PUSH2 0xBC8 PUSH2 0xB72 JUMP JUMPDEST JUMPDEST DUP1 PUSH1 0x40 MSTORE POP POP POP JUMP JUMPDEST PUSH1 0x0 PUSH2 0xBDC PUSH2 0xB1C JUMP JUMPDEST SWAP1 POP PUSH2 0xBE8 DUP3 DUP3 PUSH2 0xBA1 JUMP JUMPDEST SWAP2 SWAP1 POP JUMP JUMPDEST PUSH1 0x0 PUSH8 0xFFFFFFFFFFFFFFFF DUP3 GT ISZERO PUSH2 0xC08 JUMPI PUSH2 0xC07 PUSH2 0xB72 JUMP JUMPDEST JUMPDEST PUSH1 0x20 DUP3 MUL SWAP1 POP PUSH1 0x20 DUP2 ADD SWAP1 POP SWAP2 SWAP1 POP JUMP JUMPDEST PUSH1 0x0 DUP1 REVERT JUMPDEST PUSH1 0x0 PUSH2 0xC31 PUSH2 0xC2C DUP5 PUSH2 0xBED JUMP JUMPDEST PUSH2 0xBD2 JUMP JUMPDEST SWAP1 POP DUP1 DUP4 DUP3 MSTORE PUSH1 0x20 DUP3 ADD SWAP1 POP PUSH1 0x20 DUP5 MUL DUP4 ADD DUP6 DUP2 GT ISZERO PUSH2 0xC54 JUMPI PUSH2 0xC53 PUSH2 0xC19 JUMP JUMPDEST JUMPDEST DUP4 JUMPDEST DUP2 DUP2 LT ISZERO PUSH2 0xC7D JUMPI DUP1 PUSH2 0xC69 DUP9 DUP3 PUSH2 0xB47 JUMP JUMPDEST DUP5 MSTORE PUSH1 0x20 DUP5 ADD SWAP4 POP POP PUSH1 0x20 DUP2 ADD SWAP1 POP PUSH2 0xC56 JUMP JUMPDEST POP POP POP SWAP4 SWAP3 POP POP POP JUMP JUMPDEST PUSH1 0x0 DUP3 PUSH1 0x1F DUP4 ADD SLT PUSH2 0xC9C JUMPI PUSH2 0xC9B PUSH2 0xB5C JUMP JUMPDEST JUMPDEST DUP2 CALLDATALOAD PUSH2 0xCAC DUP5 DUP3 PUSH1 0x20 DUP7 ADD PUSH2 0xC1E JUMP JUMPDEST SWAP2 POP POP SWAP3 SWAP2 POP POP JUMP JUMPDEST PUSH1 0x0 DUP1 PUSH1 0x40 DUP4 DUP6 SUB SLT ISZERO PUSH2 0xCCC JUMPI PUSH2 0xCCB PUSH2 0xB26 JUMP JUMPDEST JUMPDEST PUSH1 0x0 PUSH2 0xCDA DUP6 DUP3 DUP7 ADD PUSH2 0xB47 JUMP JUMPDEST SWAP3 POP POP PUSH1 0x20 DUP4 ADD CALLDATALOAD PUSH8 0xFFFFFFFFFFFFFFFF DUP2 GT ISZERO PUSH2 0xCFB JUMPI PUSH2 0xCFA PUSH2 0xB2B JUMP JUMPDEST JUMPDEST PUSH2 0xD07 DUP6 DUP3 DUP7 ADD PUSH2 0xC87 JUMP JUMPDEST SWAP2 POP POP SWAP3 POP SWAP3 SWAP1 POP JUMP JUMPDEST PUSH1 0x0 DUP1 REVERT JUMPDEST PUSH1 0x0 DUP1 DUP4 PUSH1 0x1F DUP5 ADD SLT PUSH2 0xD2C JUMPI PUSH2 0xD2B PUSH2 0xB5C JUMP JUMPDEST JUMPDEST DUP3 CALLDATALOAD SWAP1 POP PUSH8 0xFFFFFFFFFFFFFFFF DUP2 GT ISZERO PUSH2 0xD49 JUMPI PUSH2 0xD48 PUSH2 0xD11 JUMP JUMPDEST JUMPDEST PUSH1 0x20 DUP4 ADD SWAP2 POP DUP4 PUSH1 0x1 DUP3 MUL DUP4 ADD GT ISZERO PUSH2 0xD65 JUMPI PUSH2 0xD64 PUSH2 0xC19 JUMP JUMPDEST JUMPDEST SWAP3 POP SWAP3 SWAP1 POP JUMP JUMPDEST PUSH1 0x0 DUP1 PUSH1 0x20 DUP4 DUP6 SUB SLT ISZERO PUSH2 0xD83 JUMPI PUSH2 0xD82 PUSH2 0xB26 JUMP JUMPDEST JUMPDEST PUSH1 0x0 DUP4 ADD CALLDATALOAD PUSH8 0xFFFFFFFFFFFFFFFF DUP2 GT ISZERO PUSH2 0xDA1 JUMPI PUSH2 0xDA0 PUSH2 0xB2B JUMP JUMPDEST JUMPDEST PUSH2 0xDAD DUP6 DUP3 DUP7 ADD PUSH2 0xD16 JUMP JUMPDEST SWAP3 POP SWAP3 POP POP SWAP3 POP SWAP3 SWAP1 POP JUMP JUMPDEST PUSH1 0x0 PUSH1 0x20 DUP3 DUP5 SUB SLT ISZERO PUSH2 0xDCF JUMPI PUSH2 0xDCE PUSH2 0xB26 JUMP JUMPDEST JUMPDEST PUSH1 0x0 PUSH2 0xDDD DUP5 DUP3 DUP6 ADD PUSH2 0xB47 JUMP JUMPDEST SWAP2 POP POP SWAP3 SWAP2 POP POP JUMP JUMPDEST PUSH1 0x0 PUSH20 0xFFFFFFFFFFFFFFFFFFFFFFFFFFFFFFFFFFFFFFFF DUP3 AND SWAP1 POP SWAP2 SWAP1 POP JUMP JUMPDEST PUSH1 0x0 PUSH2 0xE11 DUP3 PUSH2 0xDE6 JUMP JUMPDEST SWAP1 POP SWAP2 SWAP1 POP JUMP JUMPDEST PUSH2 0xE21 DUP2 PUSH2 0xE06 JUMP JUMPDEST DUP3 MSTORE POP POP JUMP JUMPDEST PUSH1 0x0 PUSH1 0x20 DUP3 ADD SWAP1 POP PUSH2 0xE3C PUSH1 0x0 DUP4 ADD DUP5 PUSH2 0xE18 JUMP JUMPDEST SWAP3 SWAP2 POP POP JUMP JUMPDEST PUSH1 0x0 DUP1 REVERT JUMPDEST PUSH1 0x0 PUSH8 0xFFFFFFFFFFFFFFFF DUP3 GT ISZERO PUSH2 0xE62 JUMPI PUSH2 0xE61 PUSH2 0xB72 JUMP JUMPDEST JUMPDEST PUSH2 0xE6B DUP3 PUSH2 0xB61 JUMP JUMPDEST SWAP1 POP PUSH1 0x20 DUP2 ADD SWAP1 POP SWAP2 SWAP1 POP JUMP JUMPDEST DUP3 DUP2 DUP4 CALLDATACOPY PUSH1 0x0 DUP4 DUP4 ADD MSTORE POP POP POP JUMP JUMPDEST PUSH1 0x0 PUSH2 0xE9A PUSH2 0xE95 DUP5 PUSH2 0xE47 JUMP JUMPDEST PUSH2 0xBD2 JUMP JUMPDEST SWAP1 POP DUP3 DUP2 MSTORE PUSH1 0x20 DUP2 ADD DUP5 DUP5 DUP5 ADD GT ISZERO PUSH2 0xEB6 JUMPI PUSH2 0xEB5 PUSH2 0xE42 JUMP JUMPDEST JUMPDEST PUSH2 0xEC1 DUP5 DUP3 DUP6 PUSH2 0xE78 JUMP JUMPDEST POP SWAP4 SWAP3 POP POP POP JUMP JUMPDEST PUSH1 0x0 DUP3 PUSH1 0x1F DUP4 ADD SLT PUSH2 0xEDE JUMPI PUSH2 0xEDD PUSH2 0xB5C JUMP JUMPDEST JUMPDEST DUP2 CALLDATALOAD PUSH2 0xEEE DUP5 DUP3 PUSH1 0x20 DUP7 ADD PUSH2 0xE87 JUMP JUMPDEST SWAP2 POP POP SWAP3 SWAP2 POP POP JUMP JUMPDEST PUSH1 0x0 PUSH1 0x20 DUP3 DUP5 SUB SLT ISZERO PUSH2 0xF0D JUMPI PUSH2 0xF0C PUSH2 0xB26 JUMP JUMPDEST JUMPDEST PUSH1 0x0 DUP3 ADD CALLDATALOAD PUSH8 0xFFFFFFFFFFFFFFFF DUP2 GT ISZERO PUSH2 0xF2B JUMPI PUSH2 0xF2A PUSH2 0xB2B JUMP JUMPDEST JUMPDEST PUSH2 0xF37 DUP5 DUP3 DUP6 ADD PUSH2 0xEC9 JUMP JUMPDEST SWAP2 POP POP SWAP3 SWAP2 POP POP JUMP JUMPDEST PUSH1 0x0 DUP2 ISZERO ISZERO SWAP1 POP SWAP2 SWAP1 POP JUMP JUMPDEST PUSH2 0xF55 DUP2 PUSH2 0xF40 JUMP JUMPDEST DUP3 MSTORE POP POP JUMP JUMPDEST PUSH1 0x0 DUP2 MLOAD SWAP1 POP SWAP2 SWAP1 POP JUMP JUMPDEST PUSH1 0x0 DUP3 DUP3 MSTORE PUSH1 0x20 DUP3 ADD SWAP1 POP SWAP3 SWAP2 POP POP JUMP JUMPDEST PUSH1 0x0 JUMPDEST DUP4 DUP2 LT ISZERO PUSH2 0xF95 JUMPI DUP1 DUP3 ADD MLOAD DUP2 DUP5 ADD MSTORE PUSH1 0x20 DUP2 ADD SWAP1 POP PUSH2 0xF7A JUMP JUMPDEST PUSH1 0x0 DUP5 DUP5 ADD MSTORE POP POP POP POP JUMP JUMPDEST PUSH1 0x0 PUSH2 0xFAC DUP3 PUSH2 0xF5B JUMP JUMPDEST PUSH2 0xFB6 DUP2 DUP6 PUSH2 0xF66 JUMP JUMPDEST SWAP4 POP PUSH2 0xFC6 DUP2 DUP6 PUSH1 0x20 DUP7 ADD PUSH2 0xF77 JUMP JUMPDEST PUSH2 0xFCF DUP2 PUSH2 0xB61 JUMP JUMPDEST DUP5 ADD SWAP2 POP POP SWAP3 SWAP2 POP POP JUMP JUMPDEST PUSH1 0x0 PUSH1 0x40 DUP3 ADD SWAP1 POP PUSH2 0xFEF PUSH1 0x0 DUP4 ADD DUP6 PUSH2 0xF4C JUMP JUMPDEST DUP2 DUP2 SUB PUSH1 0x20 DUP4 ADD MSTORE PUSH2 0x1001 DUP2 DUP5 PUSH2 0xFA1 JUMP JUMPDEST SWAP1 POP SWAP4 SWAP3 POP POP POP JUMP JUMPDEST PUSH1 0x0 PUSH1 0x40 DUP3 ADD SWAP1 POP PUSH2 0x101F PUSH1 0x0 DUP4 ADD DUP6 PUSH2 0xE18 JUMP JUMPDEST PUSH2 0x102C PUSH1 0x20 DUP4 ADD DUP5 PUSH2 0xE18 JUMP JUMPDEST SWAP4 SWAP3 POP POP POP JUMP JUMPDEST PUSH1 0x0 PUSH1 0x40 DUP3 ADD SWAP1 POP PUSH2 0x1048 PUSH1 0x0 DUP4 ADD DUP6 PUSH2 0xA60 JUMP JUMPDEST PUSH2 0x1055 PUSH1 0x20 DUP4 ADD DUP5 PUSH2 0xA60 JUMP JUMPDEST SWAP4 SWAP3 POP POP POP JUMP JUMPDEST PUSH1 0x0 DUP2 SWAP1 POP SWAP2 SWAP1 POP JUMP JUMPDEST PUSH2 0x106F DUP2 PUSH2 0x105C JUMP JUMPDEST DUP3 MSTORE POP POP JUMP JUMPDEST PUSH1 0x0 PUSH8 0xFFFFFFFFFFFFFFFF DUP3 AND SWAP1 POP SWAP2 SWAP1 POP JUMP JUMPDEST PUSH2 0x1092 DUP2 PUSH2 0x1075 JUMP JUMPDEST DUP3 MSTORE POP POP JUMP JUMPDEST PUSH1 0x0 PUSH2 0xFFFF DUP3 AND SWAP1 POP SWAP2 SWAP1 POP JUMP JUMPDEST PUSH2 0x10AF DUP2 PUSH2 0x1098 JUMP JUMPDEST DUP3 MSTORE POP POP JUMP JUMPDEST PUSH1 0x0 PUSH4 0xFFFFFFFF DUP3 AND SWAP1 POP SWAP2 SWAP1 POP JUMP JUMPDEST PUSH2 0x10CE DUP2 PUSH2 0x10B5 JUMP JUMPDEST DUP3 MSTORE POP POP JUMP JUMPDEST PUSH1 0x0 PUSH1 0xA0 DUP3 ADD SWAP1 POP PUSH2 0x10E9 PUSH1 0x0 DUP4 ADD DUP9 PUSH2 0x1066 JUMP JUMPDEST PUSH2 0x10F6 PUSH1 0x20 DUP4 ADD DUP8 PUSH2 0x1089 JUMP JUMPDEST PUSH2 0x1103 PUSH1 0x40 DUP4 ADD DUP7 PUSH2 0x10A6 JUMP JUMPDEST PUSH2 0x1110 PUSH1 0x60 DUP4 ADD DUP6 PUSH2 0x10C5 JUMP JUMPDEST PUSH2 0x111D PUSH1 0x80 DUP4 ADD DUP5 PUSH2 0x10C5 JUMP JUMPDEST SWAP7 SWAP6 POP POP POP POP POP POP JUMP JUMPDEST PUSH1 0x0 DUP2 MLOAD SWAP1 POP PUSH2 0x1136 DUP2 PUSH2 0xB30 JUMP JUMPDEST SWAP3 SWAP2 POP POP JUMP JUMPDEST PUSH1 0x0 PUSH1 0x20 DUP3 DUP5 SUB SLT ISZERO PUSH2 0x1152 JUMPI PUSH2 0x1151 PUSH2 0xB26 JUMP JUMPDEST JUMPDEST PUSH1 0x0 PUSH2 0x1160 DUP5 DUP3 DUP6 ADD PUSH2 0x1127 JUMP JUMPDEST SWAP2 POP POP SWAP3 SWAP2 POP POP JUMP JUMPDEST PUSH32 0x4E487B7100000000000000000000000000000000000000000000000000000000 PUSH1 0x0 MSTORE PUSH1 0x32 PUSH1 0x4 MSTORE PUSH1 0x24 PUSH1 0x0 REVERT JUMPDEST PUSH32 0x4E487B7100000000000000000000000000000000000000000000000000000000 PUSH1 0x0 MSTORE PUSH1 0x11 PUSH1 0x4 MSTORE PUSH1 0x24 PUSH1 0x0 REVERT JUMPDEST PUSH1 0x0 PUSH2 0x11D2 DUP3 PUSH2 0xA56 JUMP JUMPDEST SWAP2 POP PUSH2 0x11DD DUP4 PUSH2 0xA56 JUMP JUMPDEST SWAP3 POP DUP3 DUP3 SUB SWAP1 POP DUP2 DUP2 GT ISZERO PUSH2 0x11F5 JUMPI PUSH2 0x11F4 PUSH2 0x1198 JUMP JUMPDEST JUMPDEST SWAP3 SWAP2 POP POP JUMP JUMPDEST PUSH32 0x4E487B7100000000000000000000000000000000000000000000000000000000 PUSH1 0x0 MSTORE PUSH1 0x12 PUSH1 0x4 MSTORE PUSH1 0x24 PUSH1 0x0 REVERT JUMPDEST PUSH1 0x0 PUSH2 0x1235 DUP3 PUSH2 0xA56 JUMP JUMPDEST SWAP2 POP PUSH2 0x1240 DUP4 PUSH2 0xA56 JUMP JUMPDEST SWAP3 POP DUP3 PUSH2 0x1250 JUMPI PUSH2 0x124F PUSH2 0x11FB JUMP JUMPDEST JUMPDEST DUP3 DUP3 MOD SWAP1 POP SWAP3 SWAP2 POP POP JUMP JUMPDEST PUSH1 0x0 DUP2 SWAP1 POP SWAP3 SWAP2 POP POP JUMP JUMPDEST POP JUMP JUMPDEST PUSH1 0x0 PUSH2 0x1276 PUSH1 0x0 DUP4 PUSH2 0x125B JUMP JUMPDEST SWAP2 POP PUSH2 0x1281 DUP3 PUSH2 0x1266 JUMP JUMPDEST PUSH1 0x0 DUP3 ADD SWAP1 POP SWAP2 SWAP1 POP JUMP JUMPDEST PUSH1 0x0 PUSH2 0x1297 DUP3 PUSH2 0x1269 JUMP JUMPDEST SWAP2 POP DUP2 SWAP1 POP SWAP2 SWAP1 POP JUMP INVALID LOG2 PUSH5 0x6970667358 0x22 SLT KECCAK256 0x21 MSTORE 0xB6 SWAP5 PUSH1 0xD0 0xCC CODESIZE PUSH18 0x750D45F1633822334D63F535C792B2B763AF 0xDB 0xBD 0xC5 0xA7 MSIZE PUSH5 0x736F6C6343 STOP ADDMOD GT STOP CALLER "},"gasEstimates":{"creation":{"codeDepositCost":"964600","executionCost":"infinite","totalCost":"infinite"},"external":{"checkUpKeep(bytes)":"infinite","enterRaffle()":"infinite","getEntranceFee()":"infinite","getNumWords()":"409","getPlayers(uint256)":"4989","getRaffleState()":"2641","getRecentWinner()":"2566","performUpkeep(bytes)":"infinite","rawFulfillRandomWords(uint256,uint256[])":"infinite"},"internal":{"fulfillRandomWords(uint256,uint256[] memory)":"infinite"}},"methodIdentifiers":{"checkUpKeep(bytes)":"5e6c102e","enterRaffle()":"2cfcc539","getEntranceFee()":"09bc33a7","getNumWords()":"53a2c19a","getPlayers(uint256)":"460e2049","getRaffleState()":"115cbaf5","getRecentWinner()":"473f1ddc","performUpkeep(bytes)":"4585e33b","rawFulfillRandomWords(uint256,uint256[])":"1fe543e3"}},"storageLayout":{"storage":[{"astId":239,"contract":"contracts/Raffle.sol:Raffle","label":"s_players","offset":0,"slot":"0","type":"t_array(t_address_payable)dyn_storage"},{"astId":253,"contract":"contracts/Raffle.sol:Raffle","label":"s_recentWinner","offset":0,"slot":"1","type":"t_address"},{"astId":256,"contract":"contracts/Raffle.sol:Raffle","label":"s_raffleState","offset":20,"slot":"1","type":"t_enum(RaffleState)234"},{"astId":258,"contract":"contracts/Raffle.sol:Raffle","label":"s_lastTimeStamp","offset":0,"slot":"2","type":"t_uint256"}],"types":{"t_address":{"encoding":"inplace","label":"address","numberOfBytes":"20"},"t_address_payable":{"encoding":"inplace","label":"address payable","numberOfBytes":"20"},"t_array(t_address_payable)dyn_storage":{"base":"t_address_payable","encoding":"dynamic_array","label":"address payable[]","numberOfBytes":"32"},"t_enum(RaffleState)234":{"encoding":"inplace","label":"enum Raffle.RaffleState","numberOfBytes":"1"},"t_uint256":{"encoding":"inplace","label":"uint256","numberOfBytes":"32"}}},"userdoc":{"kind":"user","methods":{},"version":1}}}}